:020000040000FA
:1000000018230020B50100008F2A0000912A00006B
:1000100000000000000000000000000000000000E0
:10002000000000000000000000000000932A000013
:100030000000000000000000952A0000972A000040
:100040009F2A0000A12A0000A32A0000A52A000080
:10005000A72A0000A92A0000AB2A0000AD2A000050
:10006000AF2A0000B12A0000B32A0000B52A000020
:10007000B72A0000BF2A0000C12A0000C32A0000DE
:10008000C52A0000C72A0000C92A0000CB2A0000A8
:10009000CD2A0000CF2A0000C7010000D12A0000AD
:1000A000D32A0000D52A000000F002F800F057F82B
:1000B0000CA030C8083824182D18A246671EAB467D
:1000C00054465D46AC4201D100F049F87E460F3EF1
:1000D0000FCCB6460126334200D0FB1AA246AB46EF
:1000E00033431847286800004868000000230024B4
:1000F00000250026103A01D378C1FBD8520700D35F
:1001000030C100D50B60704710B5642902D104F0EE
:1001100067FE10BD752902D104F062FE10BD78297A
:1001200002D104F093FE10BD632902D105F084FED4
:1001300010BD732902D105F087FE10BD002010BD4F
:100140001FB5C046C04605F0EFFD040000200021A9
:1001500006F0EAF9401C60601FBD10B510BD06F046
:100160008DF91146FFF7ECFF02F0C3FD06F0A5F98B
:1001700003B4FFF7F2FF03BC02F0C0FC70B5054604
:100180000C46164602E00FCC0FC5103E102EFAD2D8
:10019000082E02D303CC03C5083E042E07D301CC9E
:1001A00001C5361F03E021782970641C6D1C761E82
:1001B000F9D270BD0748804707480047FEE7FEE7D1
:1001C000FEE7FEE7FEE7FEE704480549054A064B61
:1001D000704700002B020000A90000001817002043
:1001E00018230020181B0020181B002010B52048E1
:1001F0000021016241698907CA0F012191404269CA
:10020000D207D20F9140CAB2416940698904890E70
:1002100051438002174A800E504305F0C6F9164933
:10022000486010BD14480068704710B51348816BD2
:10023000134A1161C16B0E4841600021016241699E
:100240008907CA0F012191404269D207D20F91401C
:10025000CAB2416940698904890E51438002054A46
:10026000800E504305F0A1F90349086010BD00005D
:100270000010004100127A000000002080FD030001
:10028000001200413F4A3F4B01218032984201D188
:10029000116070473B4B2033984201D11162704787
:1002A000394A394B80329842F2D0374B203398424A
:1002B000F4D07047334A334B0121C943803298420E
:1002C00001D1116070472F4B2033984201D1116248
:1002D00070472D4A2C4B80329842F2D02A4B203363
:1002E0009842F4D0704781688022914381607047C2
:1002F0008168802291438160002101602022826018
:1003000081617047826880239A4382600A68026034
:1003100082684B689B0113438A6892001A43CB683A
:1003200009695B0013431943EF2211408160704754
:1003300020220129816802D09143816070471143D6
:10034000FBE70121C16070474069C0B27047806817
:100350008006C00F7047816880221143816070471A
:100360000068704701607047406870478068704758
:1003700081607047006970474069704780697047C5
:1003800081617047001000400020004070B51024CB
:10039000002101604160DC4A426142628162426345
:1003A00021225206904202D1D84BD94A07E043227B
:1003B000120690420CD1D54BD54A40334032002032
:1003C000602685005E515151401CA042F9D370BD9A
:1003D00011229206904204D1CC4BCD4A8033803218
:1003E000EDE7CA4BCA4AC033C0320524E7E7F0B58F
:1003F0002122002310255206904201D1C34A10E069
:1004000043221206904202D1C04A403209E0112232
:100410009206904202D1BD4A803202E0BB4AC0320D
:100420000525012426460F689E403740B74243D138
:100430000F79012F0DD046614E79B6070DD59C007E
:100440001659B608B6001651165902273E431651E2
:100450000BE0076937430761EEE79E009759BF0835
:10046000BF0097519759274397514C79640704D59A
:100470009C00165904273E4303E09C0016590427AC
:10048000BE4316514C79A40604D59C00165920276A
:100490003E4303E09C0016592027BE4316514C7979
:1004A000640604D59C00165940273E4303E09C0097
:1004B00016594027BE4316515B1CAB42B1D3F0BD69
:1004C000914901600021017162214171704702462A
:1004D000126800200A4200D0012070470068C0B2B4
:1004E00070470246526800200A4200D0012070473F
:1004F000406880B270470A06920D012312189B02D1
:10050000D21811600A0A920010185A00801801606F
:10051000704710B50B069B0D0124CA431B18A4029B
:100520001B191A60090A8900081861004018026046
:1005300010BD30B50B069B0D1C1801239B02E4185F
:1005400023680D0AAD002D180120C0022D1828685F
:10055000012A04D08B4323608843286030BD0B43BD
:1005600023600843F9E741607047836A0B43836265
:10057000012A03D0426A0A4342627047026A0A4370
:1005800002627047604A8262012901D0426270476C
:1005900002627047012A03D0426B0A4342637047EC
:1005A000026B0A4302637047574A012901D0426334
:1005B0007047026370475449816370470246926BEB
:1005C00000200A4200D001207047F0B50126504DAE
:1005D000002334469C400C4210D0002812D0012841
:1005E00013D0022814D04A4C9F0080343C19276C49
:1005F000BF08BF002764276C174327645B1C102BC0
:10060000E7DBF0BD9C00641906E09C006419EEE78E
:100610003F4C9F0080343C192768BF08BF0027600B
:10062000276817432760E9E77CB504461E460D4658
:100630006846FFF745FF6846009502716946204607
:10064000FFF7D5FE21204006844201D1002004E0BE
:1006500043200006844205D1012032462946FFF797
:10066000B4FF7CBD11208006844201D10220F4E752
:100670000320F2E77CB5044616460D466846FFF7B0
:100680001FFF00206946009508712046FFF7AFFE66
:10069000206A28432062A06A2843A0623246294685
:1006A0002046FFF777FF21204006844206D1002034
:1006B00001222946FFF789FF072009E043200006B1
:1006C000844208D1012002462946FFF77EFF082018
:1006D00000F013F87CBD11208006844206D1022070
:1006E00001222946FFF771FF0920F1E703200122CB
:1006F0002946FFF76AFF0A20EAE7C106C90E012072
:100700008840044908607047FFFF00000030004146
:100710000020004100E100E0E12149020160602188
:1007200081800021C18003220181120242818181E6
:1007300070477047F8B50446006B0D46400840000E
:1007400020638648022101614069012631468140CB
:10075000834804F02AFF00902868000105F0BEFAE3
:100760000746009805F0BAFA394605F0C3F907467E
:1007700005F070FA009005F0B1FA394605F030FF47
:10078000062105F0AFFA05F08BF90022754B05F054
:1007900039F905F063F9014600986062A162E16AE7
:1007A000EE208143A888EA8810432A890A43E16A37
:1007B00010430143E162206B6B49AA8908406989B3
:1007C00011430143206B08432063206B30432063B7
:1007D0000020F8BD10B5C36A10242343C362490743
:1007E000890E5207520F1143416310BDC16A102296
:1007F0009143C162704701607047006880B27047E2
:10080000C16A01221143C16270470246526800204A
:100810000A4200D001207047416070470246926949
:1008200000200A4200D001207047002A03D0826BCA
:100830000A4382637047426C0A434264704702462F
:10084000126C00200A4200D001207047426C0A431B
:1008500042647047704710B5444A0446116B4048E3
:10086000022904D0116B032901D0FFF7DBFC2146DC
:1008700004F09BFE3E49086110BD10B5FFF7EBFF89
:100880003B4988680322800880001043886000206C
:1008900010BD37494A68D207FCD108607047344818
:1008A000006880B27047324A0146526800200A420E
:1008B00000D0012070472E4A0029916801D00143E1
:1008C00000E0814391607047294A0029916801D076
:1008D000014300E0814391607047254A0146D26898
:1008E00000200A4200D0012070472149CA68024313
:1008F000CA607047016082691207FCD408467047DD
:1009000030B50B4605461C78002C03D021462846FE
:10091000FFF7F0FF5B1C002CF5D130BD8169C906E3
:10092000FCD40068C0B2704700B50346FFF7B1FFC2
:10093000184600BD10B503461C78002C02D0204696
:10094000FFF7A7FF5B1C002CF6D110BD08484168DB
:100950008907FCD50068C0B2704700004011004113
:1009600000127A000000E03FFE3CFFFF0010004153
:1009700000600040007870470170704730B5002477
:1009800005E00D19ADB2455D1555641CA4B29C423D
:10099000F7D330BD70B5002405E00E19155DB6B271
:1009A0008555641CA4B29C42F7D370BD70B5140089
:1009B0000FD01A4A83049E18F268400795B2184A6D
:1009C000C00A10430A4623462946FFF7E3FF2819C9
:1009D000F06070BD70B514000FD0104A83049E18EB
:1009E000B26A400795B20F4AC00A10430A4623462E
:1009F0002946FFF7C3FF2819B06270BD10B5002962
:100A00000BD0064A83049B189A6A4007054CC00A1B
:100A10005118204389B20818986210BD000201469F
:100A2000000002460000034670477749002800D0C6
:100A30000120086070477449002801D0002000E0C0
:100A40000120086170477049002800D001208861AA
:100A500070476D49002800D00120C86170476A497D
:100A6000022802D00120086270470020FBE7664997
:100A7000022802D0032800D0012008637047624991
:100A8000002804D0012802D0022800D003204863A7
:100A900070475D494031002804D0012802D0022867
:100AA00000D003200860704757494031002804D027
:100AB000012802D0022800D0032048607047524924
:100AC0004031002804D0012802D0022800D00320A1
:100AD000086270474C494031002804D0012802D0F8
:100AE000022800D0032048627047474A8001403204
:100AF000002904D0012902D0022900D00321126B61
:100B000011507047404A8001403200290CD0012921
:100B10000AD0022908D0032906D0042904D00529C7
:100B200002D0062900D00721526B11507047364A77
:100B300080018032002904D0012902D0022900D08E
:100B40000321126B115070472F4A80018032002917
:100B50000CD001290AD0022908D0032906D0042983
:100B600004D0052902D0062900D00721526B11506C
:100B700070472649002804D0012802D0022800D05E
:100B8000032008607047214900280CD001280AD0B2
:100B9000022808D0032806D0042804D0052802D053
:100BA000062800D00720486070471849002804D064
:100BB000012802D0022800D00320086170471349A1
:100BC000002804D0012802D0022800D00320486168
:100BD00070470E4A0028106A02D00123184301E032
:100BE00040084000106202200029116A01D0014330
:100BF00000E081431162704704490863704703486D
:100C0000006BC0B27047000000100041401100416D
:100C100070B50446082802D90020C04370BDF948C9
:100C2000A604301805461021FFF7A6FE2846FFF758
:100C3000A1FE0028FAD1F3481F2118303018FFF721
:100C40009BFEF14801218288A1408A438280EF4ABD
:100C5000002061005052EC49891D0855012070BDEB
:100C6000F8B51C4616460F460546082802D900204E
:100C7000C043F8BD012F06D0022F04D0042F02D0AC
:100C80000420C043F8BD6007810FE148FAD1002C71
:100C90000CD0012F02D0022F08D103E021210C42F9
:100CA000F0D003E0A10601D52106EBD52846FFF7D9
:100CB000AFFF21090901D3483943AF041038381870
:100CC000FFF75AFE002E0AD1CF48D24A0688711C7F
:100CD00089B20180914202D1032189030180C94870
:100CE000F03038184661C748012138180646FFF72A
:100CF00043FE3046FFF73EFE0028FAD1C248E10726
:100D0000C90F4288A9401143418001218288A9402E
:100D10008A438280BD4A002069005052BA49891D29
:100D20004855B84820303C182046FFF723FE0028DD
:100D3000FAD068B2F8BD70B50646082802D900207E
:100D4000C04370BDAF48B40410382018FFF712FE3E
:100D50000007000F012802D00420C04370BDA9483D
:100D6000203020180546FFF705FE132802D0022088
:100D7000C04370BDA348022120180446FFF7FCFDC4
:100D80002046FFF7F7FD0028FAD104E02046FFF7E0
:100D9000F1FD002806D02846FFF7ECFD1428F5D118
:100DA000012070BD3046FFF733FF0320C04370BD04
:100DB000F7B50D460746082802D90020C043FEBDFE
:100DC0009048BC0410382018FFF7D4FD0007000F2E
:100DD000012802D00420C043FEBD8A4820302018DC
:100DE0000646FFF7C7FD132802D00220C043FEBD10
:100DF00029786A7808028018AA7800028018EA78B0
:100E000000028018421C32D0002830D002980028FE
:100E100030D081482018FFF7AFFD7F486978401E29
:100E20002018FFF7A9FD7C48A978801E2018FFF73D
:100E3000A3FD7948E978C01E2018FFF79DFD76498B
:100E400002982739611808626E4804212018054667
:100E5000FFF792FD2846FFF78DFD0028FAD16A4979
:100E600001204988B84008421CD00020FEBD0B205C
:100E7000C043FEBD0A20C043FEBD2846FFF77AFDF1
:100E8000000708D55F48082118302018FFF774FDC7
:100E90000C20C043FEBD3046FFF76CFD002804D196
:100EA000001FFEBD5748103025183046FFF762FD81
:100EB0001728E2D10120FEBD70B50646082802D9E8
:100EC0000020C04370BD4F48B50410382818FFF704
:100ED00051FD0007000F012802D00420C04370BD5F
:100EE0004848082128180446FFF746FD2046FFF72A
:100EF00041FD0028FAD1444901208A88B04082434C
:100F00008A80498808420CD0002070BD2046FFF737
:100F100031FD00070BD53046FFF77AFE0C20C043A9
:100F200070BD384810302C18364820302D1828460F
:100F3000FFF720FD0028E9D1012070BDF7B582B090
:100F400002981446082803D90020C04305B0F0BD1C
:100F500086042C4810383018FFF70CFD0007000FEE
:100F6000012802D00420C043F0E7002C0CD0254813
:100F7000203030180190FFF7FDFC172807D01C28FF
:100F800005D00620C043E1E70D20C043DEE702980C
:100F900001251D4F8540B888054211D019481030F1
:100FA0003018FFF7E7FCC006C00EC10621D5154872
:100FB000102118303018FFF7DFFCB888A843B8803C
:100FC0001548D93030180090FFF7D4FC8006000C8B
:100FD000844200D904460098406887B20198FFF720
:100FE000C9FC17281AD01C2818D00298FFF710FE49
:100FF000C7E7000718D50298FFF70AFE0C20C04388
:10100000A4E700001000014608000020E4010020D1
:10101000FAFFFFFFF0FF000027010146FE4840886D
:10102000054203D0BC4201D900208FE7BC42D2D890
:10103000224603990298FFF7B9FCF848202130189E
:101040000646FFF799FC3046FFF794FC0028FAD1DA
:10105000F14881880D438580204677E7F7B582B057
:1010600002981446082802D90020C0436EE787047E
:10107000EA4810383818FFF77DFC0007000F0128F8
:1010800002D00420C04361E7002C19D0E44838188E
:10109000FFF770FC8006000CA04200D20446DF4837
:1010A000203038180090DE4820383E18706A85B22B
:1010B0000098FFF75FFC172815D01C2803D00CE020
:1010C0000D20C04342E7002D1AD13046FFF752FCF5
:1010D0007168800289B2884205D10298FFF798FDB5
:1010E0000620C04332E7029901208840CA49498856
:1010F000084203D0002D03D1002027E7002DD5D0D2
:10110000A54200D22C46224603990298FFF762FCC2
:10111000C248402138180546FFF72EFC2846FFF745
:1011200029FC0028FAD1204610E7FFB583B00398C8
:101130001E461546082803D90020C04307B0F0BD5D
:101140008404B64810382018FFF714FC0007000F7D
:10115000022804D0042802D00420C043EEE7002D6A
:101160001DD03078717800024018B1780002401824
:10117000F1780002C84202D10B20C043DEE70C9890
:1011800000280FD0A548203020180746FFF7F2FBB3
:1011900042280AD0222808D00620C043CEE70D20DE
:1011A000C043CBE70A20C043C8E79D483178F938EF
:1011B0002018FFF7E1FB9A487178FA382018FFF7FA
:1011C000DBFB9748B178FB382018FFF7D5FB944834
:1011D000F178FC382018FFF7CFFB90490C98F031DC
:1011E000611808628E48203820180190FFF7C2FB72
:1011F0008006000C854200D90546039901208840ED
:1012000000900198406886B23846FFF7B3FB00288B
:1012100008D0814900984988084206D0B54204D9CF
:1012200000208BE70320C04388E7B542E9D82A466F
:1012300004990398FFF7BAFB784820212018074645
:10124000FFF79AFB7548183026183846FFF792FBCF
:101250000028FAD17148103024182046FFF78AFB85
:10126000C006C00EC10605D530461021FFF784FB2D
:10127000284663E70007F0D530460821FFF77CFBDE
:101280000C20C0435AE7FFB5002485B00646082865
:1012900002D9601E09B0F0BD6048B50410382818A6
:1012A000FFF768FB04900007000F022804D0042811
:1012B00002D00420C043EDE70798002805D0594824
:1012C0007700C05B002803D022E00D20C043E1E797
:1012D00053482038281803905048203028180125FA
:1012E000B54002900398406A84B20298FFF742FB2F
:1012F000002806D048484088054207D0002C03D07B
:1013000006E00320C043C5E70020C3E7002CE9D076
:1013100041480021801D81550498B20441073F488F
:10132000490F151802291FD0042957D021463046ED
:10133000FFF764FB3B48C45328464021FFF71CFBE2
:101340002846FFF717FB0028FAD13648C15B091B76
:101350000904090CC15305D02F480122801D815D6D
:1013600011438155204695E72E4CE05B002865D15E
:10137000082269463046FFF72DFB28464021FFF73B
:10138000FBFA2846FFF7F6FA0028FAD168460178FA
:1013900008980170684641780898417068468178DD
:1013A000089881706846C1780898C17068460E999F
:1013B0000079088001026846407908180E99088073
:1013C0006846807901026846C0790818E05332E027
:1013D000224630460699FFF7FDFAADE7114CE05B77
:1013E00000282BD1022269463046FFF7F3FA28463F
:1013F0004021FFF7C1FA2846FFF7BCFA0028FAD1CE
:1014000068460078010268464078081880B20649AC
:10141000E05388420FD909E008000020100001467F
:1014200020020146E4010020EA0500003046FFF7F3
:10143000EFFB9F482EE79F4980208855E45B079883
:101440008442C5D90446C3E7F8B5144606460828C1
:1014500002D90020C043F8BD964F9748BF1FB20481
:1014600010187D880B0005F04BF80805131719219B
:101470002A333C4121780120B040012902D00029C3
:1014800003D033E02843788029E085437D8026E03F
:10149000F540E807C00F19E0884801E08748203090
:1014A0001018FFF767FA8002208018E020781F28C4
:1014B0001CD8C1068048C90E001D10180DE07E48DA
:1014C000001F1018FFF756FAC006C00E207006E085
:1014D00021781F290AD8C906C90EFFF74DFA012045
:1014E000F8BDFFF747FAC006C00E20700920C043C0
:1014F000F8BDF8B51546082802D90020C043F8BD4C
:1015000084046E4B6C4A6C48803BDC3224380427E0
:10151000E618A2182018FF430B0004F0F1FF084F53
:10152000050910421316444F63482978E43002E05D
:1015300061482978E0302018FFF71EFA31E028884A
:1015400010612EE0288810622BE0FFF713FA0007E5
:10155000000F01282DD13046FFF70CFA002802D0E9
:101560000120C043F8BD54482221143820180546F4
:10157000FFF702FA5048001F26180DE03046FFF72B
:10158000F9F9000708D54C480821001D2018FFF77D
:10159000F3F90C20C043F8BD2846FFF7EBF900280B
:1015A000ECD10120F8BDFFF7E5F90007000F012895
:1015B00001D03846F8BD29783046BDE70920C04340
:1015C000F8BDF8B514460646082802D90020C043E5
:1015D000F8BDB5043848384A384B2438DC32EF18A7
:1015E0002818AA180B0004F08BFF0D080D12151710
:1015F0003060323E404248546000FFF7BBF90009BA
:10160000000102E02C48E43033E020703DE02A483D
:10161000E0302EE0106920702848D9382818FFF7EC
:10162000A9F920702548DA382818FFF7A3F9607067
:101630002248DB382818FFF79DF9A0701F48DC38D6
:101640002818FFF797F9E0701FE0106A1CE0FFF719
:1016500091F90007000F012821D118488038281877
:10166000FFF788F910E078682080786A20801248B7
:101670000C302818FFF77EF9C7E7FFF77BF9012840
:1016800005D00F497000085A20800120F8BD786A03
:10169000FAE7FFF76FF90007000F012802D00420D6
:1016A000C043F8BD0348805DAFE70120C043F8BDEB
:1016B00017FCFFFF0E000020240001460002014637
:1016C000E40100207047704770477047007870470A
:1016D00001707047002070477047FE4A002804D010
:1016E000002902D0D16090607047FB489060FB48B1
:1016F000D0607047F74A002804D0002902D0516119
:1017000010617047F6481061F6485061704710B597
:10171000F04A1388DC05FDD5002804D0002902D04A
:10172000D161906110BDF0489061F048D06110BD6A
:1017300010B5E84A13889C05FDD5002804D000297F
:1017400002D0D161906110BDE9489061E948D06153
:1017500010BD0020C04370470020C043704710B543
:10176000E548FFF707F90446E3481030FFF702F9B0
:101770000002001980B210BD10B5C1B2040A0909F7
:101780000901DD48FFF7F8F8DB4821461030FFF784
:10179000F3F810BDD84810B5001FFFF7EBF804466A
:1017A000D5480C30FFF7E6F80002001980B210BDF2
:1017B00010B5C1B2040AD04809090901001DFFF79C
:1017C000DBF8CD4821460C30FFF7D6F810BDF0B558
:1017D00093B0CA48FFF7CEF81190C848401EFFF7F3
:1017E000C9F8C64C1090A41E2046FFF7C3F8651E2A
:1017F0000F902846FFF7BEF80E90A01DFFF7BAF82D
:101800000D90601DFFF7B6F80C90BC480830FFF74C
:10181000B1F80B90B948C01DFFF7ACF8B74E0A906D
:10182000B61D3046FFF7A6F80990E01DFFF7A2F8B5
:101830000890B01DFFF79EF80790701DFFF79AF80B
:101840000690301DFFF796F80590F01CFFF792F810
:101850000490AA481030FFF78DF8A84F03900F3777
:101860003846FFF787F80290781EFFF783F801905B
:10187000F01DFFF77FF800908021A148FFF77CF86A
:101880009F48FFF777F8A01C1199FFF775F8601CC7
:101890001099FFF771F820460F99FFF76DF8284669
:1018A0000E99FFF769F8A01D0D99FFF765F8601D07
:1018B0000C99FFF761F8B01C0B99FFF75DF8701CED
:1018C0000A99FFF759F830460999FFF755F8E01DD6
:1018D0000899FFF751F8B01D0799FFF74DF8701DF3
:1018E0000699FFF749F8301D0599FFF745F8F01CF8
:1018F0000499FFF741F8781C0399FFF73DF8384643
:101900000299FFF739F8781E0199FFF735F8F01DB5
:101910000099FFF731F813B0F0BDF8B50D46064653
:101920000024FFF754FF002E14D00022B05C521C9C
:10193000001952B244B2082AF8DB102C17DC714FA0
:101940000024A004315DC019FFF716F8641C64B2CE
:10195000082CF6DB002D19D0002108462A5C401C1B
:10196000511840B249B20828F8DB102902DD0020E6
:10197000C043F8BD634E00242036A004295D8019C1
:10198000FEF7FAFF641C64B2082CF6DB0020F8BDF9
:1019900070B50C460246002108464D1E130004F0A7
:1019A000AFFD0906091511181C2E2E202E00FFF779
:1019B0000EFF22E0002C02D0214620460831FFF71E
:1019C000ACFF70BD2088FFF7F3FE16E0FFF7E2FEE4
:1019D00005E02088FFF7D0FE0FE0FFF7C0FE208073
:1019E0000BE03C4882782270C27862700279A27063
:1019F0004279E270807920716171002070BD2846C3
:101A000070BD10B504463D484130FEF7B3FF20706D
:101A10003A483D300068608010BD10B5044601783A
:101A200036484130FEF7A8FF344960883D310860F0
:101A300010BD10B53248FEF79DFF10BD70B50446CD
:101A4000C720044202D00020C04370BD2C4D284660
:101A5000FEF790FF204301462846FEF78DFF002049
:101A600070BD10B504462548FEF784FF207023485A
:101A7000401EFEF77FFF60702048801EFEF77AFF51
:101A8000A0701E48C01EFEF775FFE0701B48001DC9
:101A9000FEF770FF20711948C01CFEF76BFF6071E4
:101AA00016480830FEF766FFA0731448C01DFEF705
:101AB00061FFE0731148801DFEF75CFF20740F4842
:101AC000401DFEF757FF60740C480C30FEF752FFC4
:101AD000A07219E020000020C5160000C716000003
:101AE000C9160000CB160000CD160000D11600006C
:101AF000D5160000D91600000421004603600046F8
:101B000000230046000201465F480B30FEF732FF1B
:101B1000E0725D480A30FEF72DFF20735A48093005
:101B2000FEF728FF607358481030FEF723FFA071BE
:101B300055480F30FEF71EFFE07153480E30FEF798
:101B400019FF207250480D30FEF714FF60724F48A5
:101B50000178A1744178E17481782175C07860754D
:101B60004A48401E0078A07510BD10B504460178A3
:101B70004548FEF701FF44486178401EFEF7FCFE31
:101B80004148A178801EFEF7F7FE3F48E178C01E6D
:101B9000FEF7F2FE3C482179001DFEF7EDFE3A48C3
:101BA0006179C01CFEF7E8FE3748A17B0830FEF7DC
:101BB000E3FE3548E17BC01DFEF7DEFE3248217CA6
:101BC000801DFEF7D9FE3048617C401DFEF7D4FE33
:101BD0002D48A17A0C30FEF7CFFE2B48E17A0B306E
:101BE000FEF7CAFE2848217B0A30FEF7C5FE2648CC
:101BF000617B0930FEF7C0FE2348A1791030FEF763
:101C0000BBFE2148E1790F30FEF7B6FE1E48217A6F
:101C10000E30FEF7B1FE1C48617A0D30FEF7ACFEC7
:101C20001A48A17C0170E17C4170217D8170617D49
:101C3000C1701649A07D491E087010BD10B50C4634
:101C4000030004F05DFC0604080C1014181D08467F
:101C5000FFF78BFF12E00846FFF703FF0EE008785E
:101C6000FFF7ECFE10BDFFF7E4FE207006E008462B
:101C7000FFF7D3FE02E00846FFF7C3FE002010BDC9
:101C80000020C04310BD0000036000461900002082
:101C900070B5044601208003206145002946204696
:101CA000FEF729FC012001F093F829462046FEF7B3
:101CB00030FC012001F08CF870BDF1B50020012648
:101CC000F60304467710450031460098FEF713FCF2
:101CD000012001F07DF831460098FEF71AFC012042
:101CE00001F076F839460098FEF7F1FB2843641CB2
:101CF000102CE8D3F8BD70B5044601208003606164
:101D0000012001F065F80125ED0329462046FEF784
:101D1000F2FB012001F05CF829462046FEF7F9FBB2
:101D2000012001F055F870BDF7B514462020001BC6
:101D300081400127BF030D467E0018E00098002D6A
:101D4000394602DAFEF7D7FB01E0FEF7E2FB01209D
:101D500001F03EF831460098FEF7CDFB012001F07E
:101D600037F831460098FEF7D4FB6D00641E002C56
:101D7000E4D1FEBD70B50C46002105462022C943C2
:101D8000FFF7D2FF042206212846FFF7CDFF0522E8
:101D900007212846FFF7C8FF052221462846FFF7FE
:101DA000C3FF2846FFF7A7FF2846FFF786FF044634
:101DB0002846FFF76DFF204670BD10B54320012176
:101DC0000006FFF7D7FF4007C00F10BD70B50C46E7
:101DD0001646002105462022C943FFF7A5FF04222D
:101DE00005212846FFF7A0FF052207212846FFF717
:101DF0009BFF052221462846FFF796FF0222114647
:101E00002846FFF791FF102231462846FFF78CFF46
:101E10002846FFF73DFF70BD0122D202904203D059
:101E20002121C90108400246002143200006CDE7D8
:101E30007CB514460D462143009101216A4611717B
:101E40006946FEF7D4FA012221461046FEF7BDFB93
:101E5000012229461046FEF7B8FB7CBD10B5FE4CAA
:101E6000FE482178FEF788FDFC486178401EFEF7A9
:101E700083FDFA48A178801EFEF77EFDF748E178E1
:101E8000C01EFEF779FDF54808342178001FFEF7E3
:101E900073FDF2486178401FFEF76EFDEF48A178B0
:101EA000801FFEF769FDED48E178C01FFEF764FD75
:101EB000EA48241F21780838FEF75EFDE74861787C
:101EC0000938FEF759FDE548A1780A38FEF754FDB8
:101ED000E248E1780B38FEF74FFD10BD10B5E04C3D
:101EE00080212046FEF748FD2046FEF743FDFFF720
:101EF000B5FFD94CD948353421781038FEF73CFD70
:101F0000D64861781138FEF737FDD448A1781238E9
:101F1000FEF732FDD148E1781338FEF72DFDCF48AA
:101F200021790C38FEF728FDCC4861790D38FEF791
:101F300023FD10BD10B5CA4C80212046FEF71CFDC4
:101F40002046FEF717FDC44CC448353421781038BC
:101F5000FEF712FDC14861781138FEF70DFDBF484C
:101F6000A1781238FEF708FDBC48E1781338FEF777
:101F700003FDBA4821790C38FEF7FEFCB7486179B9
:101F80000D38FEF7F9FC10BDB34B10B5DB1FB54C97
:101F90005C62B54C9C62B54CDC62002800D0586293
:101FA000002900D09962002A00D0DA6210BD30B555
:101FB000A94B0120DB1F996B0870487006208870C0
:101FC0000020C8705A6B120E0A715A6B120C4A71BB
:101FD0009A8E120A8A719A8ECA71996B8022088130
:101FE0008A72C872996B1A46087348738873C873EB
:101FF000087448748874C874087548758875C875FD
:10200000087648768876C8763C3214780C7754780F
:102010004C7794788C77D478CC770C46157920342B
:1020200025705279627006228C18521CD2B2207729
:10203000102AF9D39A6B002154182034491CC9B2D4
:1020400020734029F8D39A6B002154186034491C3E
:10205000C9B220738029F8D3986B6321E0300173F3
:102060008222427353228273C17330BDFEB5FFF7E3
:102070009EFF79483522C01F836BF021CA5401228C
:10208000F121CA54F221CA543D22F321CA54072235
:10209000F421CA540122F521CA5401463C310A7880
:1020A000F621CA5401463C314A78F721CA54024607
:1020B0003C329478F822D45402463C32D478F92247
:1020C000D45402463C321479FA22D45402463C32AB
:1020D0005479FB22D4540C21FC22D1540027FD2139
:1020E000CF54122204463946423406E09E18E036A8
:1020F000521C491C357392B289B2655C002DF5D132
:10210000846B554BA6183533DD78E0363573521C99
:1021100092B2A6181D79E0363573521C92B2A518FA
:102120005B79E0352B73521C92B2CB1C511A091902
:10213000E0310B72816B37238C18E0342373521C0F
:1021400092B28C18521C92B28D180623E03423737D
:102150000124E0352C73521C92B28D180324E03513
:10216000521C2C7392B28C18E0342373521C92B21E
:102170008C180F23E0342373521C92B28B183A242C
:10218000E0331C73521C92B28B18E0333B24521C78
:102190001C7392B2FF238C18E0342373521CFF246B
:1021A00092B2393404E08D18E035521C2F7392B28C
:1021B000A242F8D369460B714B718B71CB714321ED
:1021C00000918922816B01AB92008078FEF7ADFF10
:1021D000FEBDFEB5FFF7EBFE1F4C0020E41FE11D26
:1021E00020560B462933FF2703284AD0042848D01D
:1021F0006846077147718771C771A26B3520F0255A
:10220000A8540120F125A8540320F225A8543D200C
:10221000F325A8540720F425A8540120F525A85437
:102220000D48F62535300078A8540B48F725353091
:102230004078A8540848F82535308078A8540648D6
:10224000F9253530C078A8540348FA25353000798F
:10225000A854014835300BE04700002013600046C9
:10226000002300465D1E0000DD1E0000351F00003B
:102270004079FB25A8546D46ED791020FF2D16D02E
:1022800039E0A06B00228272C2720A7802734A7827
:1022900042738A788273CA78C2731A786846027168
:1022A0005A7842719A788271DA78C271A5E732253C
:1022B000FC2085540425FD2085540E78FE2086548C
:1022C0004E78FF2086548878AE01B054C978701CCF
:1022D00081543621401C8154401C85541978401C7F
:1022E00081545978401C81549978401C8154D97884
:1022F000401C81541C2013180C21E0331973401C1E
:1023000013180021E0331973F94D401C05E016182D
:10231000E036401C337380B2491C6B5C002BF6D155
:10232000A36BF34A1E18921FD578E0363573401C14
:1023300080B21E181579E0363573401C80B21D1826
:102340005279E0352A73401C82B2C81C511AC91850
:10235000E0310872A06B37218318E0331973521CE7
:1023600091B243180822E0331A73491C89B243180A
:102370000122E0331A73491C89B243180322E03367
:102380001A73491C89B243180622E0331A73491C98
:1023900089B243180F22E0331A73491C89B24218DC
:1023A0003A23E0321373491C89B242183B23E032CE
:1023B000491C137389B242181F23E0321373491C5E
:1023C00089B242182123E0321373491C89B24218A2
:1023D000E0321773491C0022FF2389B2393303E02E
:1023E0004518E0352A73491C9942F9DB43200090D7
:1023F000892201AB9200A078A16BFEF796FEFEBD8C
:102400001CB5FFF7D4FDBA4800214238806B352255
:102410008172C172F0210A540122F1210A5404226E
:10242000F2210A543D23F3210B540722F4210A54CC
:102430000122F5210A54AE49F622891F0B78135464
:102440004B78F72213548B78F8221354CB78F92267
:1024500013540B79FA2213544A79FB210A5432227D
:10246000FC210A540422FD210A54A1493B390A786F
:10247000FE210A549E493B394A78FF210A549C495F
:102480003B398A78FF2101310A5499493B39CA788E
:10249000FF2102310A543622491C0A540422491CE5
:1024A0000A549349FF2212390B78053213544B78A2
:1024B000521C13548B78521C1354CA78FF210831D4
:1024C0000A54FF22491C0A541D210023FF223932DD
:1024D0004418E034491C23739142F9DBFF2069461C
:1024E000087148718871C871432000908048892222
:1024F0004238816B01AB92008078FEF716FE1CBD5E
:102500007FB57B4C7B4A423CA07881048918496A9C
:102510000A04120C27D001A9009102ABA16BFEF7AF
:10252000B2FE82B26846808843283CD1A06B214627
:102530003C31037F0D78AB4215D1457F4B789D42EE
:1025400011D1837F8D78AB420DD1C37FCD78AB4263
:1025500009D1034620331D780E79B54203D15B784B
:1025600049798B4202D0002004B070BDF0300025C4
:102570008118F03915E00278332A3ED008DC002AB1
:1025800015D0012A18D0032A1AD0062A06D125E030
:10259000352A0ED0362A3FD0FF2A06D04278801C3A
:1025A00080188842E7D368B2DEE70846F9E7401CA6
:1025B000F7E78578C01CF4E74D4A8378333A2EE07C
:1025C0004B4A43788678373A1670C6785670067943
:1025D00096704679801DD670C0180CE0444B427846
:1025E00086782F3B1E70C6785E7006799E7046799D
:1025F000801DDE708018001FD3E78278A261C37847
:1026000012029A18A261037912029A18A261437900
:1026100012029A18A26109E0354A8378123A1370BF
:10262000C3785370037993704379D370801DB8E7F2
:102630002F4800214238C161052202624170704773
:1026400070B52B4C0125423C61570026224690571D
:10265000022917DAE269216A914223D2012804D0C3
:10266000022805D0042805D102E0FFF7FFFC01E0B5
:10267000FFF7AFFDE661E069401D20626078401C15
:1026800060700FE0012804D0022805D0042807D18B
:1026900002E02670002503E0FFF7E8FC012020702F
:1026A000FFF7C6FF284670BDF8B5134E3046FEF75B
:1026B00061F9054603213046FEF75EF90C4B0F48E1
:1026C0003B3BDC1F009011220DA1A078FEF72DFDF1
:1026D000074629463046FEF74FF90D371AD0FFF767
:1026E0008FFEE069E169091A0229FBD30020F8BDD9
:1026F000820000200002014644600046881300006A
:10270000434845434B5F49505F434F4E464C494316
:10271000540000000120EAE7F8B5B64C20780628FE
:102720001ED0A078B44980044018FEF723F922286F
:1027300005D0002344220221A078FEF791FA01255A
:10274000FFF7DEFEC1B20022A256AA4800260127EA
:10275000C01D130003F0D4FE05060D1C314C2F00E4
:102760000520C4E7067046708670C670FFF77EFCD1
:102770005EE002291CD1A16B0A7C02704A7C427087
:102780008A7C8270C97CC170FFF723FD02204BE078
:1027900005290BD1FFF788FF002801D0606A3FE0D0
:1027A000FFF746FFE06A8047267004E006293DD027
:1027B000FFF746FF0546284699E7A16904254A1C0C
:1027C000F9D0E26949089142F5D28A490278C91CD8
:1027D0000A7042784A7082788A70C078C870606BDC
:1027E000401C6063FFF7F5FCFFF722FF04201BE0AD
:1027F00004250529DAD17F496670C91C0A78037857
:102800009A420BD14A7843789A4207D18A788378E2
:102810009A4203D1C978C078814202D0A06A0325C8
:102820008047FFF705FF03202070C4E7FFF700FF94
:102830002770C0E710B56F4CA078FEF7E9F90620C5
:10284000207010BDF3B56D4F83B0064600253846A5
:102850000095FEF78FF8674C3C342070781EFEF729
:1028600089F86070B81EFEF785F8A070F81EFEF7B4
:1028700081F8E070381DFEF77DF82071F81CFEF736
:1028800079F86071014620786278E3781043A27885
:102890001A4310432279104308431FD125700820A2
:1028A0006070DC20A070E57025712946657138469E
:1028B000FEF762F86178781EFEF75EF8A178B81E20
:1028C000FEF75AF8E178F81EFEF756F82179381D20
:1028D000FEF752F86179F81CFEF74EF8454FBE70CE
:1028E0000498B863E178227945488918627910180C
:1028F000081878636846017840480C461030FEF7A7
:102900003BF868464078029001463C480F30FEF79D
:1029100033F8684680780190014638480E30FEF75B
:102920002BF86846C678354831460D30FEF724F856
:10293000324821461030FEF71FF8304802990F3018
:10294000FEF71AF82D4801990E30FEF715F82B48BE
:1029500031460D30FEF710F8284821460830FEF7C2
:102960000BF826480299C01DFEF706F82348019986
:10297000801DFEF701F821483146401DFDF7FCFFA0
:10298000FFF756FE3D7005B0F0BD1A48C169491CFD
:10299000C16170471749C91D0A7802704A784270B0
:1029A0008A788270C978C170704712490B310A78F1
:1029B00002704A7842708A788270C978C170704714
:1029C0000C490F310A7802704A7842708A78827016
:1029D000C978C1707047074913310A7802704A7884
:1029E00042708A788270C978C170704701488069E6
:1029F00070470000400000203000014603600046A0
:102A000078563412F0B587B001F0E2FE04466D4608
:102A1000A81DFFF7BFFF03A802300690FFF7C5FF10
:102A200002A802300746FFF7CBFF04A80230064693
:102A3000FFF7D1FF214606222131684601F09AFFB7
:102A400020460422A91D273001F098FF20460422C9
:102A50002B30069901F092FF2046042239462F3090
:102A600001F08CFF204604223146783001F086FFC9
:102A70006034A07D002801D0022000E001206946DA
:102A800088750020FFF7DAF807B0F0BD704770478F
:102A900070477047704710B500F0A2F910BD70473D
:102AA000704770477047704770477047704770476E
:102AB00070477047704710B501F04EFB10BD70476E
:102AC000704770477047704770477047704770474E
:102AD00070477047704710B5C0B2FDF725FF10BDB5
:102AE00010B5FDF733FFFDF71FFF10BD0020C043F9
:102AF000704710B5C0B2FDF717FF10BDFEE700002C
:102B000010B501F065FE6030807D002806D0D04809
:102B10004078012803D0CFA002F0F0F810BDFFF7F5
:102B200065FF0146D0A002F0E9F810BD70B50024A1
:102B3000D7490320FFF786FED749D64A0846FFF754
:102B400023FAFFF7E9FD0546042807D0002D01D13F
:102B5000641CE4B2032C03D9FFF76CFE68B270BDAD
:102B600001F08BF8EDE738B501F032FE0446CBA05A
:102B700002F0C4F8CAA1D6A002F0C0F8D6A002F0B4
:102B8000BDF8DFA000902020035DE27FA17FDEA0E2
:102B900002F0B4F8C2A1CEA002F0B0F838BD03C86C
:102BA00080F30888084700B5C1B000216A460B7859
:102BB0005354491C0829FAD30821435C5354491C37
:102BC000A829FAD3A82001781154401CFF28FAD96B
:102BD00072B600231A461946122001F0C5F9FF23E8
:102BE00001336A460021222001F0BEF962B641B0ED
:102BF00000BDF0B591B001F0EBFD04460020069059
:102C000007901821684602F070FC182109A802F00C
:102C10006CFC2046203041780025002905D18178C0
:102C2000082902D1C078DC2842D0002306AA194620
:102C3000184601F007FA6846007E002807D168466A
:102C4000407E082803D16846807EDC2834D0B8480E
:102C50008821274601706E464037B6A002F04EF834
:102C60000025FDF773FE70556D1CEDB2152DF8D3E0
:102C700009A9684600F0BFF900280BD0B87D0028EC
:102C800003D009A992A002F039F81821684602F091
:102C90002CFCE2E7002001F0EEF90023224621326D
:102CA0001946184601F015FA01F094FD01F05AFE9C
:102CB0000125284611B0F0BD2046062206A9213084
:102CC00002F0B4FB01F04EFEF3E700B5C1B0002006
:102CD000694602780A54401CFF28FAD972B6FF23CD
:102CE0000A466F2101330902222001F03DF962B644
:102CF0007DE701F06DFD044600F07AF8FDF792FAE9
:102D0000914902F052FC91490860082028709048CF
:102D100068802846FEF781FE01F0ECFC01F000FE21
:102D2000002634200655FFF764FF2546A035687E4F
:102D300001280CD1022001F01AFB802807D121467E
:102D40006E76BC31002002F028FC01F00BFE072556
:102D50002D032868401C07D02846FFF724FF296868
:102D6000686881F30888804725464035A87D00289B
:102D700001D0FFF7F8FE6034A07D0127002803D0C2
:102D8000FFF7D4FE042820D001F0E0FEA87D002843
:102D900003D001F050FEFFF7B3FE2D48077000206E
:102DA00001F0E1FC6B4D00F068FFA07D002801D030
:102DB000FFF7B2FC28780028F5D0002001F0EBFCEA
:102DC000012001F0E8FC2E70EDE721484770DDE7B7
:102DD00001B51F480099416041680029FCD108BD38
:102DE0001B484168002902D04168491E4160704774
:102DF00010B50320FDF733FE584957484861FDF7E9
:102E000014FA6F2000020168491C1DD0FFF7CBFEA9
:102E100001F084F901F0FFF9FDF704FA7D21C90002
:102E200002F0C3FB4E49401E88420CD84D49486110
:102E30004D480722C3691B021B0A4C042343C3618C
:102E4000002088610A6110BDFFF73FFFE0E7000046
:102E50009000002020232044484350204661696CA4
:102E600065640D0A000000002023204448435020E0
:102E70004950204C65617365642074696D65203A22
:102E8000202575207365636F6E64730D0A00000062
:102E9000F40100208D2A0000052A00000D0A000020
:102EA0003D3D3D3D3D3D3D3D3D3D3D3D3D3D3D3D52
:102EB0003D3D3D3D3D3D3D3D3D3D3D3D3D3D3D3D42
:102EC0003D3D3D3D3D3D3D3D3D3D3D3D3D000000E9
:102ED00025730D0A00000000205B57373530305D48
:102EE0002053657269616C20746F20457468657247
:102EF0006E6574204465766963650D0A0000000004
:102F0000446576656C6F7000204669726D776172FA
:102F1000652076657273696F6E3A20426F6F742018
:102F200025782E25782E25782025730D0A0000009F
:102F300098000020494E5055542046495253542081
:102F40004D41433F0D0A00001027000000200046BD
:102F5000C4090000B4010020000106000010004177
:102F6000FFFFFF0000E000E004ED00E0F8B50027FF
:102F70000D4604460F70F74E09E002F0D9F90246FB
:102F80002046316802F0F6F9002804D0361D30687A
:102F90000028F2D129E03068002826D0ED48301A08
:102FA0008005060E2B2E07D02C2E11D0A11C2846F2
:102FB00002F098F93046F8BD207A0D2815D1607AD4
:102FC0000A2812D10622A11C284602F02FFAF1E7A6
:102FD000002002E02954401CC0B2211889780D2934
:102FE000F8D12118C9780A2901D0FF20F8BD2F5443
:102FF00028184770DEE7F0B59FB00F46054601F090
:10300000E7FB1590002410A98C85042138461894FC
:1030100002F069FAD0A12846E8E304A9FFF7A6FF69
:103020000646FF2873D004A802F082F980B201900E
:103030006846007C002824D0C649882224390978B3
:10304000114271D0330003F05BFA36F7F6F6F5F46F
:10305000F3F2F3F1F0EFEEEDECEBEAE9E8E8E8E8A3
:10306000E8E8E7E6E5E4E3E2E1E0DFDEDDDCDBDA49
:10307000D9D8D7D6D6D5D6D6D6D6D6D6D6D6D46261
:10308000F362B448B100415833000878387048788A
:103090007870BF1C169703F033FA361C2C353B3E74
:1030A000E943E9484C50555A5D666F78E8E8E98392
:1030B000E8E885979A9FF3F6FAFEE3E2E1E0DFDEC7
:1030C000DDDCDBDADAD9DADAD8D7D6D5D4D3D2D187
:1030D000E9D015982030877943790279C178039730
:1030E0006F460EC7837842789CA1169801F014FEB3
:1030F00085E11598A1A12030007800901598C37F34
:10310000827FF0E0159AA0A13846521D02E1F0E35B
:10311000159860300BE015982030C2E09BA166E165
:1031200015986030427DF9E7E0E315984030827DE4
:10313000F4E715984030827AF0E715984330417AE9
:10314000007AB9E015984130417B007BB4E01598D6
:103150002330AAE015982030827A417A01920091BA
:10316000037AC27919E015982030827C417C019263
:103170000091037CC27B10E015982030827B417B5C
:1031800001920091037BC27A07E015986030C27EFD
:10319000817E01920091437E027E7DA1384610E03F
:1031A0007E4ABBE71598407900285ED015982030FC
:1031B0008279417901920091159A037978A1384674
:1031C000521D01F0A9FD1AE11598213001E0159872
:1031D0002330417E007E6FE015986030C17D00296C
:1031E00045D0007F002840D0159A67A138467C3230
:1031F00090E04DE31FE376E30CE3FCE2CFE2C3E2B1
:10320000ACE29BE28BE27BE26FE263E257E24AE2EE
:103210003AE20FE2FFE1F2E1E3E10AE2CCE1B6E1FA
:10322000A0E18AE17DE16DE15DE151E145E139E156
:1032300039E326E11BE117E100E1F1E0EBE0E6E034
:10324000D7E0CCE0C9E0C1E07BE06FE06BE067E095
:1032500057E04CE040E03BE035E030E028E022E0A1
:103260001DE018E013E00EE00AE056E0D6E0159805
:103270002030027EC17D01920091837D427D8CE7EA
:1032800015984030C5E015984030027C46E7159807
:103290004030427C42E715984030827C3EE71598EA
:1032A0004030C27C3AE715982130417F007F03E02F
:1032B00015984130417800780A0202432EE71598AC
:1032C0004030C2782AE7159839A1403002798EE063
:1032D0001598A030827B21E71598A030817C009161
:1032E000437C027C34A1384601F016FD87E0159836
:1032F00060304078002810D0159A23A138466132FA
:1033000008E015986030C07A002806D0159A1EA1F2
:1033100038466B3201F000FD71E020222AA166E000
:10332000812000026AE04120400267E009488821CC
:1033300024380078084201D010205FE0432040028A
:103340005CE004488821243800780842F6D0202028
:1033500054E00000BC0000200D0A00002530325867
:103360003A253032583A253032583A253032583AD8
:10337000253032583A2530325800000025782E2565
:10338000782E2578000000002573000025640000D9
:1033900025642E25642E25642E256400D60B00009E
:1033A00025732D253032782530327825303278005B
:1033B0002530325800000000253032582530325870
:1033C000253032580000000025630000FE488821A7
:1033D00000780842B2D0802010E001229EE61598C5
:1033E0002030007D8100F84808304258F7A1384667
:1033F00090E7F5480178882001429FD00443F448C3
:10340000044211D0169F0020BF1E387054E2159858
:10341000A030C27B82E62120C001EFE700227DE6DA
:10342000212080020443DAE7EAA1169801F0F2FFB6
:10343000169801F07DFF169947183DE21598203047
:103440004178002905D18178082902D1C078DC288B
:103450000AD0159AE0A104A8213200F02BFD002823
:10346000D4D18520000226E28320000223E200F06E
:10347000D8FC01990129F4D10128F2D815996031BD
:1034800024E000F0CEFC009001980128E9D10098DA
:103490000328E6D80020FDF7BBFB159800992030E3
:1034A000C17409E200F0BDFC01990129D9D10128BC
:1034B000D7D8159960314875FEE100F0B2FC01994A
:1034C0000129CED10128CCD8159940318875F3E176
:1034D00000F0A7FC01990129C3D10128C1D8159991
:1034E00040318872E8E118AABCA104A801F076FD79
:1034F000BB4918988842B4D8159943310872000A1C
:103500004872D9E118AAB5A104A801F067FDB44931
:1035100018988842A5D8159941310873000A487354
:10352000CAE118AAADA104A801F058FDAC49189849
:10353000884296D815992331EDE017A904A800F028
:103540000DFC00288DD0159810A9097F2030C1717D
:1035500010A9497F017210A9897F417210A9C97F02
:103560008172A9E117A904A800F0F8FB0028E9D0AE
:10357000159810A9097F2030C17310A9497F0174E3
:1035800010A9897F417410A9C97F817494E117A99A
:1035900004A800F0E3FB0028D4D0159810A9097FF7
:1035A0002030C17210A9497F017310A9897F41732E
:1035B00010A9C97F81737FE117A904A800F0CEFB91
:1035C0000028BFD0159810A9097F6030017610A996
:1035D000497F417610A9897F817610A9C97FC1767C
:1035E0006AE10199182986D8202804D0159A77A174
:1035F00004A8521D17E11599002048715CE118AA32
:1036000076A104A801F0EAFC75491898884290D880
:10361000159921310AE018AA70A104A801F0DEFC76
:103620006F491898884284D8159923310876000A82
:10363000487641E117A904A800F090FB002812D0B9
:10364000159800216030C175159810A9097F2030A8
:10365000417510A9497F817510A9897FC17510A98D
:10366000C97F017628E1159801216030C17569464E
:10367000097C202905D0159804A97C3001F032FE80
:103680001AE10021017717E11BAA56A104A801F055
:10369000A5FC01980228A6D810A8808D0D28A2D8D4
:1036A00015994031FDE000F0BCFB0199012900D0E3
:1036B000D7E60128FCD8159940310874FCE000F0E9
:1036C000B0FB01990129F3D10228F1D815994031B5
:1036D0004874F1E000F0A5FB01990129E8D1012827
:1036E000E6D8159940318874E6E000F09AFB01991C
:1036F0000129DDD10228DBD815994031C874DBE0FF
:1037000018AA36A104A801F069FC35491898884226
:10371000CED8159921310877000A4877CCE018AA4D
:103720002EA104A801F05AFC2D4918988842BFD850
:10373000159941310870000A4870BDE01BAA29A103
:1037400004A801F04BFC01980328B1D810A8808D83
:10375000FF28ADD815994031C870ADE00198022816
:10376000A6D104A800F045FB0028A1D0159A1EA1FF
:1037700004A8443201F032FC159840300179002948
:1037800000D00121017297E000F04BFB0199012963
:103790008ED101288CD81599A03188738CE00198BE
:1037A00006280BD104A800F024FB002806D01599A8
:1037B00004A8B03100F053FB00287DD11598A0304B
:1037C000837C427C017C12E098000020257300007D
:1037D000B08000000D0A00002E3A2D00256C640018
:1037E000FFFF0000256400002578000087E0FBA0B3
:1037F00001F084FA35E601990929FBD8202804D084
:10380000159AFEA104A861320DE0159800216030E0
:10381000417051E001990929ECD8202806D0159A69
:10382000F6A104A86B3201F0D9FB45E01598002100
:103830006030C17240E018AAF14904A801F0CEFB43
:1038400019211898C902884205D915990020BC3160
:1038500001F0A3FE05E6159980B2BC3101F09DFE92
:1038600015980121A0304176402004431598E54B7E
:103870002030827A417A009102930192037AC279D0
:10388000E1A1384601F048FA0020FDF7C1F913E044
:1038900000F0C7FA01990129ACD10128AAD81599DD
:1038A000A031C87308E000F0BCFA01990129A1D148
:1038B00001289FD800E0044320041ED50020A870F2
:1038C000FF2E02D0D648B10045580120C003201A6F
:1038D000D34900128000DC310A582B46D1A138466A
:1038E00001F01AFA11E081200002E4E743204002CF
:1038F000E1E7FFE721208002DDE7CCA1002001F015
:10390000B1FC050001D0FFF788FB20461FB0F0BDD9
:1039100010B500220621FDF7ECFD10BDF3B591B006
:10392000064600F055FF044600200E90C048FDF703
:1039300021F8BB4D0027243D2F70172808D002DC4A
:1039400000283ED19DE01828FCD01C28F9D195E034
:10395000B7481038FDF70EF8C00707D0012068708F
:10396000AF800146B2480838FDF706F8A87801286C
:1039700003D10220FFF7CCFFAF70AE48406A0204CB
:10398000120C1ED012980F9031460220FDF766FBF4
:1039900080B230182038C77705A93046FFF7E6FA1D
:1039A0002B2868D10622A4A105A801F06DFC0028EF
:1039B00008D021460622213105A801F065FC002827
:1039C00003D06DE02878802101E028788821084321
:1039D000287000064FD520462030C178857943797C
:1039E000027901AF2EC78178009143788C4894A169
:1039F0008030C26A0F9801F08FF90F9D0A3605A931
:103A000030460A35FFF7B2FA2C2849D16846007DC6
:103A1000202803D16B20005D002806D021466B31A1
:103A200005A801F065FD00283AD105A801F080FC49
:103A3000021D3146284601F0F9FC05A801F078FC8A
:103A4000861905A8361D01F073FC4419241D214672
:103A50003046FFF7D0FA0E9005A801F069FC054644
:103A6000204601F065FC28180E3082B2022012991F
:103A7000FDF764FA14E0002013B0F0BD0220FDF75A
:103A80001BFA0220FDF7C4F85E4A2023521E0121D2
:103A90000220FDF7E5F8022802D16F70FDF74BF91F
:103AA0000E98E9E7F3B599B0054600F091FE04469B
:103AB0005B4E0020243E169030706648FCF75AFF9B
:103AC00000287DD0222826D16348406A0204120CC7
:103AD00021D015A800901A9F17AB29460120FDF7A9
:103AE000D2FB80B2281800212038C17705A92846CA
:103AF000FFF73CFA2B286FD106224FA105A801F051
:103B0000C3FB002808D021460622213105A801F078
:103B1000BBFB002803D0AEE03078802101E0307894
:103B2000882108433070000656D52046203086791B
:103B300043790279C178019102A94CC18178009141
:103B4000437837483EA18030C26A384601F0E4F835
:103B50000A3505A928460A37FFF708FA2C283AD172
:103B60006846007D202803D16B20005D002806D028
:103B700021466B3105A801F0BBFC00287BD105A8CC
:103B800001F0D6FB021D2946384601F04FFC05A87E
:103B900001F0CEFB451905A82D1D01F0C9FBC41984
:103BA000241D21462846FFF726FAC0B2169005A824
:103BB00001F0BEFB0546204601F0BAFB281800E0E4
:103BC00053E00E3082B210A8808A009023A3012017
:103BD0001A99FDF7AAFA4EE044E000003E3E205359
:103BE000454743505F5353203D20252E3258202512
:103BF0002E325820252E3258000000002573000078
:103C0000DC37000052C30000465725642E25642E81
:103C100025642E25643A25643A25640D0A000000C7
:103C2000BC00002025733A25730D0A000D0A000020
:103C30003000094600020946FFFFFFFFFFFF0000BA
:103C400025732563256325632563256325630D0A95
:103C5000000000003000054600020546FFFFFFFFA0
:103C60000000000000201BB0F0BD00232E4A0221FE
:103C70000120FCF7F5FF1698F5E770B500F0A8FDF8
:103C800005462A492A48FFF70DFF064627492848D6
:103C9000FFF744FE04463443200408D54035A87D90
:103CA000012803D1214623A001F028F870BD002C83
:103CB000FCD0200702D500F0B7FA0FE0E00602D5ED
:103CC00000F050FE0AE0E00408D520A001F016F84C
:103CD000002000F0D0F9012000F0CDF9600607D5F2
:103CE000042000F044FB8028E0D100F03BFE01E01E
:103CF0002006DBD500F0B1FA70BD154841780029E7
:103D000010D08288134B00219A4203D28288521C21
:103D1000828000E0818082880F4B9A4202D3012288
:103D2000827081807047000051C30000F4130020AE
:103D3000F4110020203E2053454743503A4552524B
:103D40004F523A253034580D0A0000000D0A000089
:103D500098000020FFFF0000983A0000F3B500250E
:103D600083B02E462C46039801F0E2FAC7B2002039
:103D700001900090F81F092839D22EE000F0B6FF1C
:103D800001680398405D095C202902D02E2811D0DB
:103D90002DE00A214C43303C01198CB2FF2C26D86F
:103DA000009901AA50540098401CC0B2009003280A
:103DB0001DD810E0FF2C1AD8761CF6B2042E16D8A7
:103DC000002401A801F041FA049989192039C87723
:103DD0000020019000906D1CEDB2BD42CED301A831
:103DE00001F033FA04998855012005B0F0BD002098
:103DF000FBE770B5054600240CE000F077FF006893
:103E0000295D415C88004840000601D4002070BD57
:103E1000641CE4B2284601F08BFAA042EDD80120E0
:103E200070BD10B50446112801D2FF2010BD00F06E
:103E30005DFF0168085D202805D0204628383F280E
:103E400003D2513C08E0303C06E02046402C04D927
:103E5000472C02D90446313CE4B2204610BD70B56F
:103E60000E460546002401F063FAC1B2C80706D128
:103E7000102904D82878002801D0002016E000205E
:103E800070BD2A5C392A01D9373A00E0303AD3B202
:103E90002A185278392A01D9373A00E0303A1B0102
:103EA00013433355641C801CE4B2C0B28842E8D38B
:103EB000012070BDF7B584B00546002401F038FA42
:103EC0002978C0B2002901D0112802D0002007B003
:103ED000F0BD002601AF600020184119032268469A
:103EE00001F0A4FA68468178002904D0059801F011
:103EF000C1F90028EBD068468670FFF77AFF0028EA
:103F0000E5D039196846FFF7AAFF641CE4B2062C15
:103F1000E1D3062201A9069801F088FA0120D6E72C
:103F2000F8B50D46044601F003FAC0B2C10716D138
:103F3000102814D82078002811D00026C1B2684675
:103F40000170617841702A4686706D1C05A101F0F0
:103F500045F8A078A41C0028F0D10120F8BD00206D
:103F6000F8BD00002578000070B5314C2568661753
:103F70002660304EB047256070BD10B50021420C60
:103F800016D02D4A904204D32C4A104201D110245D
:103F900006E02A4A5242904209D3800C07D11124EC
:103FA00072B600231A462046FFF7DEFF62B610BD48
:103FB00012240146F4E710B5410C07D172B6002374
:103FC00001461A461320FFF7CFFF62B610BD70B549
:103FD00014460A46184B1A49984208D3850C06D154
:103FE000FF250135AC420DD8E3188B420AD8002CCE
:103FF00001D1884206D801214904FF23411A5B02FE
:10400000994201D2002070BD72B62346014622209B
:10401000FFF7AAFF62B6204670BD10B50346002028
:1040200002E01C5C0C54401C9042FAD310BD00000E
:1040300000E200E00110FF1F00FE03000001FCFF92
:10404000FFFF030070B50D46144601000BD0012997
:104050000DD0022901D0032804D11A462146284652
:10406000FFF7DBFF70BD062221462A48F8E71A4613
:1040700021462948F4E7F8B5002818D0012818D0BF
:1040800002281AD0032817D12725ED020C2708266D
:10409000002420034019FFF78EFF641CA4B2BC4229
:1040A000F7D338034519002E06D000240EE0194836
:1040B00000E01948FFF761FFF8BD07252D03E5E78C
:1040C00020024019FFF759FF641CA4B2B442F7D391
:1040D000F8BD70B51C460B46154601000BD00129F2
:1040E00010D0022901D0032804D1224629461846BF
:1040F000FFF76DFF70BD0020FFF7BDFF06222946C8
:104100000448F5E70120FFF7B6FF2246294602489A
:10411000EEE7000000FE030000FF030030B50124BD
:10412000334985B020030860324D2846FCF7AAF8D1
:104130000021314804910291009001940394694652
:104140002846FCF7DFF801212846FCF7F1F828465D
:10415000FCF701F905B030BD70B5264C2046FCF7E0
:10416000F3F800282FD02046FCF7EBF8234C6088AA
:10417000401C6080FFF7C1FD00F0C2F92048002517
:104180000078002808D0E088401C80B2E0806428D5
:1041900002D301202070E5807D21C900608801F0F4
:1041A00004FA002905D16580A088401CA080FEF794
:1041B000ECFB3C21A08801F0F8F9002903D1A5808F
:1041C000A068401CA0600B4C20342046FCF7BCF8D3
:1041D000002802D02046FCF7B4F870BD074880687C
:1041E0007047064880887047044840887047704789
:1041F00000E100E00010004080BB0000B40100209E
:10420000900000201FB56846FCF786FA694605480D
:10421000FCF790FA1FBD10B5E1204002FCF72DFB22
:1042200010BD000000D0004010B500F0D3FA00F03F
:1042300099FB10BD10B5C648FCF79CFB172808D0A9
:104240001C2806D00220FCF7E3FC0120FCF7E0FC70
:1042500010BD0220FCF730FEF7E7FFF7EBFFBFF3DE
:104260004F8FBD49BB48C860BFF34F8FFEE7BB48C7
:104270000021017081708180C1804170C1707047E0
:10428000F3B581B000F0A4FA064600200446009081
:104290000198B9368704B2483818FCF76BFBAF4D6C
:1042A000172808D002DC00285FD14FE018284DD035
:1042B0001C285AD141E0AA4810383818FCF75AFB9C
:1042C000C00707D00120A870A54801210838381878
:1042D000FCF752FBE878012833D0A2483818406A2E
:1042E0000404240C41D00120C002844200D90446B9
:1042F000F01C01F041F9E9680A19904201D2401A14
:1043000084B2224602990198FCF7A8FE84B2E868BC
:10431000210A0019E860684601704470022269466B
:104320000198FCF70BFE0027EF80F01C01F024F948
:10433000E968884219D8AF80AF700198FCF7BCFDDE
:1043400013E00198FCF7B8FD0020FEBD2023864A4B
:1043500001210198FCF784FC01460198814204D1B7
:104360000020E8600198FCF7E6FC2046FEBDF1B5B0
:104370008AB000F02DFA0646B93600F029FA054653
:1043800030784F35202700280FD0F01C01F0F4F8CA
:104390001922D202002801D0904209D9E9790129D5
:1043A00003D10146714800F0A9FC40200BB0F0BDDC
:1043B00027240A99E402042907D00A4607210903A1
:1043C000022A4FD0032A48D03BE0E979012903D1E2
:1043D000014667A000F092FC60490020886003203D
:1043E000FFF749FE5D480121017004466F49042032
:1043F000FFF746FF03000DD02720A168C00209186F
:104400006A4A0320FFF765FEA16880B20818A06021
:104410000020A0806078012809D0E07801280AD027
:10442000F01C01F0A9F8A1688842DFD80AE0E87919
:1044300001285AD005E0E879012802D15CA000F0FB
:104440005DFC4027F01C01F097F8444989688842D8
:1044500052D1EA79012A4AD04DE002220594009215
:10446000079103E00322009207940591E97901295D
:1044700003D101465CA000F041FC384C0020A06054
:104480000A98FFF7F8FD0120C00206900120207075
:1044900060780128CBD0F01C01F06EF80122A168F1
:1044A000D2028A18904202D2401A80B2069007982F
:1044B0003E4A4118069B0098FFF7C4FD03041B0CFD
:1044C0000CD00598A168394A41180A98FFF701FEF7
:1044D000A16880B20818A0600020A080F01C01F044
:1044E0004BF8A1688842D3D8ACE74FA0A7E70246B3
:1044F0005BA000F003FC8027FFF7B9FE384655E7C4
:1045000030B51648624A0578624B01240021012D1E
:104510000CD18588954203D285886D1C858000E08A
:10452000818085889D4201D3447081808578012DEA
:104530000CD1C588954203D2C288521CC28000E0CB
:10454000C180C2889A4201D3C470C18030BD0000CE
:10455000300009460400FA0500ED00E0C00100202B
:10456000300001460002014652C30000A46800006A
:10457000203E2053454743503A46575F55504441EB
:1045800054453A4E4554574F524B202D20466972A0
:104590006D776172652073697A653A205B25645D89
:1045A0002062797465730D0A00000000F409002090
:1045B000203E2053454743503A46575F55504441AB
:1045C00054453A4641494C4544202D204E65747768
:1045D0006F726B20646F776E6C6F61642074696DAD
:1045E000656F75740D0A0000203E20534547435007
:1045F0003A46575F5550444154453A464C4153481A
:104600002D746F2D464C415348202D204669726D04
:10461000776172652073697A653A205B25645D2055
:1046200062797465730D0A00203E2053454743505C
:104630003A46575F5550444154453A4641494C45E6
:1046400044202D204669726D776172652075706413
:104650006174652074696D656F75740D0A000000E2
:10466000203E2053454743503A46575F55504441FA
:1046700054453A53554343455353202D2025642038
:104680002F2025642062797465730D0A00000000F4
:10469000FFFF0000B80B0000FEB50446022818D248
:1046A000484E6500705B00900120694608714648DD
:1046B000A700C059FBF79BFE4348715B401F025D9A
:1046C000801E005DFBF781FF3F48715BC059FBF71F
:1046D00012FFFEBD10B5212002214006FBF7F7FEB8
:1046E00010BD10B521200123002202214006FBF756
:1046F0009BFF10BD10B50120FFF779FD3348642101
:104700008162C1620163416301610122920343201E
:1047100051000006FDF78CFB0020FFF768FDFFF756
:10472000E0FFFFF7D7FF00280AD00020264908390C
:1047300008700020FFF7B0FF0120FFF7ADFF10BDAC
:104740000120F3E710B50123212000225902400681
:10475000FBF76AFF10BD10B5012121204902400678
:10476000FBF7B5FE10BD10B5022807D2154A41006F
:10477000515A154A80001058FBF7CBFE10BD10B5FA
:10478000022807D20F4A4100515A0F4A80001058A0
:10479000FBF7B1FE10BD022808D20B4982008958F0
:1047A0004A68084B4000185A42404A60704710B5AA
:1047B000044A4100515A044A80001058FBF791FE08
:1047C00010BD0000C8660000D80100204030004144
:1047D000F8487047F8B5F74FC4203870002078705B
:1047E000B8700125FD70044638711921781D00F05C
:1047F0007AFE0A22F0A1781D00F018FEBC77082688
:104800003846FE7720300470C021C171A827077296
:104810000B22427202238372C17207734273857343
:10482000FF23C373037443748474C57405754175A1
:104830008775C27503210176E249401C01760A0A98
:104840004276821C11760B0A53760477230A43774B
:10485000DD481077000A50771E321470200A50701D
:10486000501EC470047144718471C4710472447226
:104870008572D64FC31C1F723F0A5F721173090AFB
:1048800051730C21C173057444748474C474047529
:10489000447585750A21173000F025FEC5480A21A8
:1048A0006B3000F020FEC3480A21613000F01BFE8F
:1048B000C0483221603044758475C47506764676EA
:1048C0008676C6761C3000F00EFEBA482B21A0304A
:1048D0008573C4730174417481740F22C11C0A74FE
:1048E00000224A740322431C1A7500225A750F22B3
:1048F000D2430A75120A4A754476B549801C01767E
:10490000090A417601461A31002000F046FEA94806
:104910005021C130017000214170401EC570F8BDAA
:1049200010B5C423A34A00210120FFF78BFBA14C43
:10493000607821780002084302D0A649884207D156
:10494000FFF748FFC4239B4A00210120FFF7C1FB6A
:1049500098480121203001750021A1770822E277D3
:10496000017010BD10B5C423924A00210120FFF749
:10497000B0FB10BD10B500F059FD10BD10B500F032
:1049800055FD10BD10B5044601468A480622213067
:10499000FFF7F4FF87480422A11D2730FFF7EEFF41
:1049A0008448214604220E312B30FFF7E7FF81486F
:1049B000214604220A312F30FFF7E0FF7D482146CF
:1049C000042212317830FFF7D9FF7A48A17D603098
:1049D000012902D00121817510BD0021FBE710B52E
:1049E0007449044606222131FFF7C4FF71490422AD
:1049F0002731A01DFFF7BEFF6E49204604222B3150
:104A00000E30FFF7B7FF6B49204604222F310A30E2
:104A1000FFF7B0FF67492046042278311230FFF7D4
:104A2000A9FF64486030807D002801D0022000E0AA
:104A30000120A07510BD10B58AB05E4C03A90120FD
:104A4000FDF7FCF86846427C017CC07B6B4607C3DF
:104A50006846837B427B017B5FA000F04FF92046D4
:104A60002130417E007E090201436846407D00906E
:104A700001916846037DC27C817C61A000F03EF913
:104A80006846407F00906846037FC27E817E64A0B6
:104A900000F034F96846407E00906846037EC27D8F
:104AA000817D65A000F02AF908A84078009008A848
:104AB00003786846C27F817F65A000F01FF9204619
:104AC0002030C17C012911D077210A5DC11C012A47
:104AD00011D04A7E0B7E1102027E19430092019191
:104AE000C37D827D417D60A000F008F969A000F0DF
:104AF00005F90AB010BD487E097E02020A4321462C
:104B00007C3165A000F0FAF8F0E710B5294C6C484C
:104B100020346178FBF730FF6948A178401EFBF72D
:104B20002BFF6748E178801EFBF726FF6448217958
:104B3000C01EFBF721FF62486179001DFBF71CFFD7
:104B40005F48A179C01CFBF717FF10BD10B5194CC9
:104B500086B02146062221316846FFF70BFF214629
:104B600001A8042227310230FFF704FF214603A8E1
:104B700004222B310230FFF7FDFE214602A8042259
:104B80002F310230FFF7F6FE214604A804227831C7
:104B90000230FFF7EFFE6034A07D002801D0022034
:104BA00000E00120694688750020FDF747F806B04F
:104BB00010BD0000F415002057373530302D53322A
:104BC0004500000088130000B80B0000581B0000CF
:104BD00052C30000FFFF00002023204D41433A2034
:104BE000253032583A253032583A253032583A2555
:104BF0003032583A253032583A253032580D0A00B2
:104C000020232049503A2025642E25642E25642E29
:104C10002564202F20506F72743A2025640D0A00FD
:104C200020232047573A2025642E25642E25642E04
:104C300025640D0A00000000202320534E3A202551
:104C4000642E25642E25642E25640D0A00000000C4
:104C5000202320444E533A2025642E25642E2564BB
:104C60002E25640D0A00000020232044657374691A
:104C70006E6174696F6E2049503A2025642E256458
:104C80002E25642E2564202F20506F72743A202523
:104C9000640D0A000D0A0000202320446573746926
:104CA0006E6174696F6E20446F6D61696E3A202584
:104CB00073202F20506F72743A2025640D0A000073
:104CC00003600046074801218175704705480021AF
:104CD000817570470146034810B506223F3800F041
:104CE000A5FB65E7541600207047000010B501F0E1
:104CF0001BF8001D10BD00BF311800000FB405499E
:104D000010B503AA029801F0A3F810BC08BC04B0C7
:104D1000184700008C0000200FB41CB5074B06AAF2
:104D20007B4469460090059801F063F800206946CD
:104D300001F072F81CBC08BC04B01847F510000064
:104D400070B5044685690068C10601D5302600E0CB
:104D50002026C00707D070BD62683046A168904722
:104D6000206A401C20626D1EF6D570BD70B50446E9
:104D700085690078C00707D170BD6268A1682020EE
:104D80009047206A401C20626D1EF6D570BD70B53C
:104D90000C460546012A05D02878800600D5EA6928
:104DA000002302E0012305E05B1C934202D2E05C99
:104DB0000028F9D1A869E618C01AA861286AC018A5
:104DC00028622846FFF7BCFF04E06A682078A968DB
:104DD000641C9047B442F8D32846FFF7C7FF70BD64
:104DE000F7B5002575291068009914A611D0C046A2
:104DF000C046002802DA404211A608E0009909687E
:104E00008A0701D50FA602E0490704D50EA60125A1
:104E100001E0C046C046009F0024243704E001F0B2
:104E2000D1F830313955641C0028F8D12B46324670
:104E30002146009800F080FFFEBD00000000000049
:104E40002D0000002B0000002000000070B504467B
:104E50000D4621461068C046C0462188090502D586
:104E60000F4A7A4402E00E4A7A440E322346002169
:104E7000243305E006070009360F965D5E54491C91
:104E80000028F7D120780023000705D5702D03D026
:104E9000002901D002231132204600F04DFF70BDE1
:104EA00066180000F3B50446002081B02062204659
:104EB000E168884700287DD0252802D06268A16873
:104EC00083E0454F00257F442046E168884720283D
:104ED000064608DB312E06D2B819203800780028A3
:104EE00001D00543F0E7A80701D504208543002041
:104EF000E0610746A0612A2E0AD0304601F00DFB82
:104F0000002827D0B8000019303E0090866119E0D3
:104F10000298BA00121902C8916102902046E16815
:104F20008847012F064617D1E06900281FDA2020A4
:104F300085431CE000980A21806948430099801944
:104F4000303888612046E1688847064601F0E5FA76
:104F50000028EFD1012F0AD02E2E08D12046E1687B
:104F600088470646202005437F1C022FC3DBA0692B
:104F7000002803DA4042A06101200543E80701D080
:104F800010208543002E24D030464138192803D8FC
:104F90000120C00205432036204625603146029A92
:104FA0001546FBF7B1F800280CD0012807D0ED1DFD
:104FB000E80800E00DE0C0000830029077E72D1D02
:104FC000029574E762683046A1689047206A401CE9
:104FD0006CE7206AFEBD00002A1800000FB400B57F
:104FE0008DB010A909900B900020C04300910A9049
:104FF00000200C90074878440690074878446A4699
:1050000007900F9909A800F04DFF0DB008BC04B03F
:1050100018470000CF0E0000E90E0000FFB51D4646
:105020000027FF4383B05C68002001909E68A96957
:1050300004987F1C88470090296A88470028F6D189
:105040000098401C0CD0032040028443002E19DD40
:10505000600614D500982B2809D02D280FD103E025
:105060000020C04307B0F0BD012080020443A969BD
:1050700004987F1C8847761E002E009002DD009861
:10508000302803D00598002825D035E00120A969F3
:1050900040020443761E04987F1C8847002E00902F
:1050A00003DD782805D0582803D00598002810D0B3
:1050B00022E00598002801D010281DD10120A969FF
:1050C00040028443761E04987F1C8847009010207D
:1050D00002E0082000E00A2005900DE00121059A79
:1050E00049020C430199761E514308180190A969A1
:1050F00004987F1C88470090002E05DD05990098D4
:1051000000F0BAFE0028E9DAE96904988847A005AA
:1051100002D40120C043A5E7E00722D1600611D5E3
:105120006005019800D5404229680A1D2A60096877
:10513000220501D5087014E0220701D5088010E08F
:1051400008600EE02868011D29600068210502D56D
:105150000199017005E02107019901D5018000E066
:10516000016038467EE7FFB5144683B00020002674
:1051700000905068019091699768049888470C994D
:1051800005460698084305D009E0A1690498761CF5
:1051900088470546216A284688470028F5D1681CBB
:1051A00003D00198C00704D017E00020C04307B027
:1051B000F0BD2068011D2160006800900DE001989D
:1051C000C00704D1009805700098401C0090A169A8
:1051D000761C04987F1E88470546002F1CDD681C3E
:1051E0001AD0069800280FD0E817C00E40194111B8
:1051F00040098A000699400151182A1A09680120BD
:1052000090400142DBD107E00C980028D7D1284616
:10521000216A88470028D2D0E1690498884701981C
:105220000C99C007C00F084302D1009800210170FB
:10523000A068B84204DD0C98002804D0002F02D0EA
:105240000120C043B3E73046B1E770B5064600F031
:105250006FFD0468054630460A22002100F056FE24
:105260002C6070BD10B5024A00F088FE10BD000031
:10527000E0010020401ECAB24178401C8A4202D0A0
:105280000029F9D100207047034610B50B439B0756
:105290000FD1042A0DD308C810C9121FA342F8D099
:1052A00018BA21BA884201D9012010BD0020C0439C
:1052B00010BD002A03D0D30703D0521C07E0002002
:1052C00010BD03780C78401C491C1B1B07D10378C8
:1052D0000C78401C491C1B1B01D1921EF1D11846B1
:1052E00010BD0000034670B502460B439B070FD16B
:1052F0000E4CE60100E008C208C91D1B9D43354263
:10530000F9D0D9B21170521C00290DD01B0AF8E750
:105310000B78491C1370521C002B05D00B78491CCC
:105320001370521C002BF3D170BD0000010101016C
:1053300030B5441C03E00178401C00290DD08107E2
:10534000F9D10B4BDD0104C8D11A91432940FAD0A1
:10535000001B0A0603D0C01E30BD001B30BD0A046E
:1053600001D0801E30BD0902FCD0401E30BD0000BF
:10537000010101010346F0B50B439B072DD1244DDC
:10538000EF01042A29D308C810C95E1B9E43121FCF
:105390003E4017D0D8B2E1B2401A3106014310D1D5
:1053A00098B2A1B2401A310401430AD11802210275
:1053B000000A090A401A3102014302D1180E210ED7
:1053C000401AF0BDA342DCD018BA21BA884201D9F4
:1053D0000120F0BD0020C043F0BD002A01D1002013
:1053E000F0BD03780C78401C491C002B0DD0A34263
:1053F0000BD1521E09D003780C78401C491C002B9D
:1054000003D0A34201D1521EEBD1181BF0BD000006
:1054100001010101421E5378521C002BFBD10B7875
:10542000491C1370521C002BF9D17047F8B5042A9F
:105430002CD3830712D00B78491C0370401C521EDA
:1054400083070BD00B78491C0370401C521E830746
:1054500004D00B78491C0370401C521E8B079B0F15
:1054600005D0C91ADF002023DE1B08C90AE0FAF7BD
:1054700085FEF8BD1D4608C9FD401C46B4402C43BE
:1054800010C0121F042AF5D2F308C91A521EF0D414
:105490000B78491C0370401C521EEAD40B78491C3F
:1054A0000370401C012AE4D409780170F8BD01E0C2
:1054B00004C0091F0429FBD28B0701D50280801C80
:1054C000C90700D00270704700290BD0C30702D073
:1054D0000270401C491E022904D3830702D50280B2
:1054E000801C891EE3E70022EEE70022DFE70000D0
:1054F000024670B50A4392072AD11E4DEE0104C838
:1055000008C9541B9443344017D0D0B2D9B2401AC2
:105510002106014310D190B299B2401A21040143EF
:105520000AD110021902000A090A401A2102014395
:1055300002D1100E190E401A70BD9A42DFD010BA77
:1055400019BA884201D9012070BD0020C04370BD46
:1055500002780B78401C491C002A09D09A4207D1D6
:1055600002780B78401C491C002A01D09A42EFD0E7
:10557000D01A70BD010101010378C2781946437841
:1055800012061B0219438378C0781B041943114388
:105590000902090A000608437047020A08704A70A7
:1055A000020C8A70020ECA707047002203098B42F7
:1055B0002CD3030A8B4211D300239C464EE00346B2
:1055C0000B433CD4002243088B4231D303098B4266
:1055D0001CD3030A8B4201D394463FE0C3098B429C
:1055E00001D3CB01C01A524183098B4201D38B01F5
:1055F000C01A524143098B4201D34B01C01A524198
:1056000003098B4201D30B01C01A5241C3088B42DC
:1056100001D3CB00C01A524183088B4201D38B00C7
:10562000C01A524143088B4201D34B00C01A524169
:10563000411A00D201465241104670475DE0CA0F40
:1056400000D04942031000D34042534000229C4600
:1056500003098B422DD3030A8B4212D3FC2289010A
:1056600012BA030A8B420CD3890192118B4208D3E0
:10567000890192118B4204D389013AD0921100E042
:105680008909C3098B4201D3CB01C01A5241830956
:105690008B4201D38B01C01A524143098B4201D383
:1056A0004B01C01A524103098B4201D30B01C01AAE
:1056B0005241C3088B4201D3CB00C01A5241830828
:1056C0008B4201D38B00C01A5241D9D243088B427E
:1056D00001D34B00C01A5241411A00D20146634621
:1056E00052415B10104601D34042002B00D5494285
:1056F000704763465B1000D3404201B50020C046AE
:10570000C04602BD7047704770470000F0B50C46B8
:10571000871A9C410D46861A9D4103D2C01BA141A8
:10572000D21963410D0D1F0DC74EEC1BAE435CD06B
:105730007F057F0D0026002F51D02D05AC46A943D3
:10574000DD020123ED0A1B051D4320231B1B24D46E
:105750001746E740381871412F46E740CC199D4065
:105760002818314661410C0D27D161449A4013D568
:105770000023401C594152000ED140084000012234
:105780004B005205D34207D305204007C14201D543
:10579000AE4900E0AE493046F0BD6B00002A00D0B3
:1057A00001229A181F23203C1B1B01D5002302E075
:1057B000E540281871410C0DD7D0012424050919A2
:1057C000C407CD0740084908E40F28436144002C72
:1057D000D5D00024401C61419A40D0D1CDE76A0564
:1057E000520DD9D1C90FC907D5E79A4D4E000028EF
:1057F00001D0012400E0002434195F00002A01D008
:10580000012600E00026BE19934FAC420CD8AE42F0
:105810000AD8B44206D001256D05EC42BCD0104632
:105820001946F0BD9942FCD000203946F0BDF0B5D4
:105830001FB40C460F46811A9F412546861A9D418A
:1058400006D20125ED076F40401ABC4152187B413A
:10585000210D1E0D8D1BAC467B4D8D437ED07505F5
:105860006D0D7CD00D05AE46AC431B031B0B774D75
:1058700052429D41202366469B1B14D31746F74096
:10588000381800260090744160462F460741E419FD
:1058900000989D402818664116D4714671189A40A8
:1058A00025D5012320E093182A466A415200002B97
:1058B00000D0521C1E23203E9B1B002B61DD354176
:1058C000EE1728186641E8D5001876415B1C9A400F
:1058D00000D3401C4B05F3181524E34010D3002BD4
:1058E00052D071467118D30FC01802D3491C05B0AD
:1058F000F0BD0123DB079A42F9D140084000F6E7EA
:1059000001225205B21801D1002853D00123CC0A3C
:10591000DB029943891E002A08D1020C03D0020C35
:105920000004103902E00246002020390023550B04
:1059300005D112020823550B01D152010D23550C3C
:1059400001D112011B1DD50C01D192009B1C150D1C
:1059500001D152005B1C2025EE1A01E02CE022E070
:105960000546F54015439840CA1AE1076918130522
:10597000C918002ABBDA032040070818C10FC9075D
:105980000FE071466118B2E7F10740080843711053
:1059900071444A000CD001235B059A42A7D2C90F7B
:1059A000C9070020A3E74905490D26D1002001E0E1
:1059B0000028F4D100219AE7264D6600002801D086
:1059C000012100E0002171185F00002A01D00126AA
:1059D00000E00026BE19204FA94210D8AE420ED8D2
:1059E000B14208D001256D05E94206D01946A8024A
:1059F000414010467BE79C4201D0214677E70020DA
:105A0000394674E730B40C465C4004D50124E40701
:105A1000634030BC0BE730BC78E630B40C465C40E9
:105A200004D50124E407634030BC6FE630BCFEE6D9
:105A300030B40124E40761400D465D4001D430BC20
:105A400064E6634030BCF2E6FF0700000000F0FFB0
:105A50000000F07F0000E0FF0000F87FCB02420D65
:105A600010B51A430B1504D00124E4072243002B80
:105A700006DB0A4CE31A05D41046D840FF2B00DDA4
:105A8000002010BD4A00002800D00120101801227B
:105A90005205D042F4D8C817C04310BD1E04000000
:105AA0000121C9050123411842001B06D3185B0ED2
:105AB0000AD0C1100722D206891840075242D142AB
:105AC00001D5520089187047090208D50146002AFD
:105AD00003D0C10FC907002070471046704742022B
