:020000040000FA
:1000000058230020B50100001F290000212900000D
:1000100000000000000000000000000000000000E0
:100020000000000000000000000000002329000084
:100030000000000000000000252900002729000022
:100040002F29000031290000332900003529000044
:1000500037290000392900003B2900003D29000014
:100060003F290000412900004329000045290000E4
:10007000472900004F2900005129000053290000A2
:100080005529000057290000592900005B2900006C
:100090005D2900005F290000C70100006129000000
:1000A000632900006529000000F002F800F057F80D
:1000B0000CA030C8083824182D18A246671EAB467D
:1000C00054465D46AC4201D100F049F87E460F3EF1
:1000D0000FCCB6460126334200D0FB1AA246AB46EF
:1000E00033431847CC650000EC6500000023002472
:1000F00000250026103A01D378C1FBD8520700D35F
:1001000030C100D50B60704710B5642902D104F0EE
:100110002DFD10BD752902D104F028FD10BD7829F0
:1001200002D104F059FD10BD632902D105F04AFD4A
:1001300010BD732902D105F04DFD10BD002010BD8A
:100140001FB5C046C04605F0B5FC040000200021E4
:1001500006F0B0F8401C60601FBD10B510BD06F081
:1001600053F81146FFF7ECFF02F016FD06F06BF8AE
:1001700003B4FFF7F2FF03BC02F008FC70B50546BC
:100180000C46164602E00FCC0FC5103E102EFAD2D8
:10019000082E02D303CC03C5083E042E07D301CC9E
:1001A00001C5361F03E021782970641C6D1C761E82
:1001B000F9D270BD0748804707480047FEE7FEE7D1
:1001C000FEE7FEE7FEE7FEE704480549054A064B61
:1001D00070470000FF010000A90000005817002030
:1001E00058230020581B0020581B00203648006868
:1001F00070473548406870473448006A704710B50A
:100200003348816B334A1161C16B30484160002132
:10021000016241698907CA0F012191404269D207F1
:10022000D20F9140CAB2416940698904890E514395
:100230008002294A800E504305F07DF8224908606B
:1002400010BDF8B5254F0126204D01280FD0002004
:100250002862214C1046214605F06DF8C0B20128F5
:1002600008D8EE616F6101210A46134619E02E623B
:100270000C46EFE70021E961FF2101318006800A89
:100280000843686168698007C00F86406869C007D5
:10029000C00F86406869F2B28004810E68698002EE
:1002A000830E2046084C51436060584305F043F8E4
:1002B0002060F8BD30B4064B9C6B064D2C61DB6BA7
:1002C000024C636030BCBCE700000020001000411D
:1002D00080FD03000012004100127A0000010200BC
:1002E0003F4A3F4B01218032984201D11160704753
:1002F0003B4B2033984201D111627047394A394B48
:1003000080329842F2D0374B20339842F4D0704775
:10031000334A334B0121C9438032984201D11160E5
:1003200070472F4B2033984201D1116270472D4AFC
:100330002C4B80329842F2D02A4B20339842F4D092
:100340007047816880229143816070478168802274
:1003500091438160002101602022826081617047A9
:10036000826880239A4382600A68026082684B68D0
:100370009B0113438A6892001A43CB6809695B00AA
:1003800013431943EF221140816070472022012955
:10039000816802D09143816070471143FBE70121DE
:1003A000C16070474069C0B2704780688006C00F66
:1003B00070478168802211438160704700687047F0
:1003C000016070474068704780687047816070477F
:1003D0000069704740697047806970478161704764
:1003E000001000400020004070B510240021016082
:1003F0004160DC4A426142628162426321225206CC
:10040000904202D1D84BD94A07E0432212069042CB
:100410000CD1D54BD54A40334032002060268500B0
:100420005E515151401CA042F9D370BD1122920679
:10043000904204D1CC4BCD4A80338032EDE7CA4B99
:10044000CA4AC033C0320524E7E7F0B521220023B1
:1004500010255206904201D1C34A10E043221206F1
:10046000904202D1C04A403209E0112292069042E5
:1004700002D1BD4A803202E0BB4AC03205250124C8
:1004800026460F689E403740B74243D10F79012F6F
:100490000DD046614E79B6070DD59C001659B608A9
:1004A000B6001651165902273E4316510BE0076954
:1004B00037430761EEE79E009759BF08BF00975189
:1004C0009759274397514C79640704D59C001659D6
:1004D00004273E4303E09C0016590427BE431651EF
:1004E0004C79A40604D59C00165920273E4303E00E
:1004F0009C0016592027BE4316514C79640604D53A
:100500009C00165940273E4303E09C0016594027A3
:10051000BE4316515B1CAB42B1D3F0BD91490160A3
:10052000002101716221417170470246126800206A
:100530000A4200D0012070470068C0B270470246EE
:10054000526800200A4200D001207047406880B203
:1005500070470A06920D012312189B02D2181160EF
:100560000A0A920010185A0080180160704710B5EE
:100570000B069B0D0124CA431B18A4021B191A6009
:10058000090A8900081861004018026010BD30B5E2
:100590000B069B0D1C1801239B02E41823680D0A0F
:1005A000AD002D180120C0022D182868012A04D0A2
:1005B0008B4323608843286030BD0B43236008438E
:1005C000F9E741607047836A0B438362012A03D0D5
:1005D000426A0A4342627047026A0A4302627047F3
:1005E000604A8262012901D042627047026270470C
:1005F000012A03D0426B0A4342637047026B0A43ED
:1006000002637047574A012901D042637047026371
:1006100070475449816370470246926B00200A423A
:1006200000D001207047F0B50126504D002334461C
:100630009C400C4210D0002812D0012813D0022870
:1006400014D04A4C9F0080343C19276CBF08BF006F
:100650002764276C174327645B1C102BE7DBF0BD76
:100660009C00641906E09C006419EEE73F4C9F0073
:1006700080343C192768BF08BF00276027681743EC
:100680002760E9E77CB504461E460D466846FFF73D
:1006900045FF68460095027169462046FFF7D5FE82
:1006A00021204006844201D1002004E043200006BE
:1006B000844205D1012032462946FFF7B4FF7CBDB4
:1006C00011208006844201D10220F4E70320F2E7E2
:1006D0007CB5044616460D466846FFF71FFF00200E
:1006E0006946009508712046FFF7AFFE206A28434F
:1006F0002062A06A2843A062324629462046FFF7BE
:1007000077FF21204006844206D10020012229469D
:10071000FFF789FF072009E043200006844208D143
:10072000012002462946FFF77EFF082000F013F85B
:100730007CBD11208006844206D102200122294678
:10074000FFF771FF0920F1E7032001222946FFF797
:100750006AFF0A20EAE7C106C90E01208840044961
:1007600008607047FFFF000000300041002000419A
:1007700000E100E0E1214902016060218180002167
:10078000C18003220181120242818181704770473A
:10079000F8B50446006B0E46400840002063FFF7A2
:1007A0002BFD8B4F0125002846D03D61FFF71EFD34
:1007B0007A692946914004F0BEFD07463068000181
:1007C00005F052F90090384605F04EF9009905F011
:1007D00057F8074605F004F9009005F045F9394649
:1007E00005F0C4FD062105F043F905F01FF80022CD
:1007F000784B04F0CDFF04F0F7FF014600986062EB
:10080000A162E06AEE218843B188F28811433289FF
:100810000243E06A11430843E062206B6E49B289EB
:100820000840718911430143206B08432063206B0A
:10083000284320630020F8BD0220386178692946EA
:1008400081406648B7E710B5C36A10242343C362EA
:100850004907890E5207520F1143416310BDC16A07
:1008600010229143C162704701607047006880B2F6
:100870007047C16A01221143C16270470246526843
:1008800000200A4200D001207047416070470246B4
:10089000926900200A4200D001207047002A03D04C
:1008A000826B0A4382637047426C0A43426470471A
:1008B0000246126C00200A4200D001207047426CB0
:1008C0000A4342647047704710B504464448016BC0
:1008D00002290AD0006B032807D0FFF787FC2146C6
:1008E00004F029FD3F49086110BDFFF782FCF6E7DF
:1008F00010B5FFF7E9FF3B498868032280088000B4
:1009000010438860002010BD36494A68D207FCD1E8
:10091000086070473348006880B27047314A01462A
:10092000526800200A4200D0012070472D4A002959
:10093000916801D0014300E0814391607047294AEA
:100940000029916801D0014300E081439160704724
:10095000244A0146D26800200A4200D00120704794
:100960002049CA680243CA60704701608269120761
:10097000FCD40846704730B50B4605461C78002C61
:1009800003D021462846FFF7F0FF5B1C002CF5D171
:1009900030BD8169C906FCD40068C0B2704700B59B
:1009A0000346FFF7B1FF184600BD10B503461C789B
:1009B000002C02D02046FFF7A7FF5B1C002CF6D1CD
:1009C00010BD084841688907FCD50068C0B270476F
:1009D000401100410000E03FFE3CFFFF00127A00A2
:1009E00000100041006000400078704701707047BF
:1009F00030B5002405E00D19ADB2455D1555641CF8
:100A0000A4B29C42F7D330BD70B5002405E00E19A6
:100A1000155DB6B28555641CA4B29C42F7D370BD77
:100A200070B514000FD01A4A83049E18F26840076C
:100A300095B2184AC00A10430A4623462946FFF7D2
:100A4000E3FF2819F06070BD70B514000FD0104A94
:100A500083049E18B26A400795B20F4AC00A104339
:100A60000A4623462946FFF7C3FF2819B06270BD26
:100A700010B500290BD0064A83049B189A6A4007D8
:100A8000054CC00A5118204389B20818986210BD5D
:100A900000020146000002460000034670B504460D
:100AA000082802D90020C04370BDF948A6043018B8
:100AB00005461021FFF79AFF2846FFF795FF00280B
:100AC000FAD1F3481F2118303018FFF78FFFF14893
:100AD00001218288A1408A438280EF4A0020610080
:100AE0005052EC49891D0855012070BDF8B51C46CF
:100AF00016460F460546082802D90020C043F8BD17
:100B0000012F06D0022F04D0042F02D00420C043AE
:100B1000F8BD6007810FE148FAD1002C0CD0012FFD
:100B200002D0022F08D103E021210C42F0D003E0D3
:100B3000A10601D52106EBD52846FFF7AFFF210915
:100B40000901D3483943AF0410383818FFF74EFF76
:100B5000002E0AD1CF48D24A0688711C89B2018082
:100B6000914202D1032189030180C948F03038182D
:100B70004661C748012138180646FFF737FF30465F
:100B8000FFF732FF0028FAD1C248E107C90F4288B7
:100B9000A9401143418001218288A9408A43828073
:100BA000BD4A002069005052BA49891D4855B848CD
:100BB00020303C182046FFF717FF0028FAD068B213
:100BC000F8BD70B50646082802D90020C04370BDA4
:100BD000AF48B40410382018FFF706FF0007000FD5
:100BE000012802D00420C04370BDA948203020183D
:100BF0000546FFF7F9FE132802D00220C04370BD5E
:100C0000A348022120180446FFF7F0FE2046FFF714
:100C1000EBFE0028FAD104E02046FFF7E5FE0028AD
:100C200006D02846FFF7E0FE1428F5D1012070BD5C
:100C30003046FFF733FF0320C04370BDF7B50D46C4
:100C40000746082802D90020C043FEBD9048BC04D6
:100C500010382018FFF7C8FE0007000F012802D047
:100C60000420C043FEBD8A48203020180646FFF706
:100C7000BBFE132802D00220C043FEBD29786A784B
:100C800008028018AA7800028018EA78000280180A
:100C9000421C32D0002830D00298002830D0814841
:100CA0002018FFF7A3FE7F486978401E2018FFF741
:100CB0009DFE7C48A978801E2018FFF797FE794892
:100CC000E978C01E2018FFF791FE7649029827396F
:100CD000611808626E48042120180546FFF786FE59
:100CE0002846FFF781FE0028FAD16A490120498889
:100CF000B84008421CD00020FEBD0B20C043FEBD02
:100D00000A20C043FEBD2846FFF76EFE000708D547
:100D10005F48082118302018FFF768FE0C20C043F8
:100D2000FEBD3046FFF760FE002804D1001FFEBD67
:100D30005748103025183046FFF756FE1728E2D1E5
:100D40000120FEBD70B50646082802D90020C04328
:100D500070BD4F48B50410382818FFF745FE00074E
:100D6000000F012802D00420C04370BD484808216C
:100D700028180446FFF73AFE2046FFF735FE002804
:100D8000FAD1444901208A88B04082438A80498848
:100D900008420CD0002070BD2046FFF725FE00075A
:100DA0000BD53046FFF77AFE0C20C04370BD3848A3
:100DB00010302C18364820302D182846FFF714FE26
:100DC0000028E9D1012070BDF7B582B00298144621
:100DD000082803D90020C04305B0F0BD86042C4884
:100DE00010383018FFF700FE0007000F012802D06E
:100DF0000420C043F0E7002C0CD0254820303018E8
:100E00000190FFF7F1FD172807D01C2805D0062018
:100E1000C043E1E70D20C043DEE7029801251D4FE6
:100E20008540B888054211D0194810303018FFF7B6
:100E3000DBFDC006C00EC10621D5154810211830B3
:100E40003018FFF7D3FDB888A843B8801548D930CB
:100E500030180090FFF7C8FD8006000C844200D9CE
:100E600004460098406887B20198FFF7BDFD172837
:100E70001AD01C2818D00298FFF710FEC7E7000709
:100E800018D50298FFF70AFE0C20C043A4E7000023
:100E90001000014608000020EC010020FAFFFFFFCF
:100EA000F0FF000027010146FE484088054203D0BC
:100EB000BC4201D900208FE7BC42D2D82246039918
:100EC0000298FFF7ADFDF848202130180646FFF7DD
:100ED0008DFD3046FFF788FD0028FAD1F148818862
:100EE0000D438580204677E7F7B582B00298144617
:100EF000082802D90020C0436EE78704EA4810386A
:100F00003818FFF771FD0007000F012802D00420F8
:100F1000C04361E7002C19D0E4483818FFF764FD9E
:100F20008006000CA04200D20446DF48203038186A
:100F30000090DE4820383E18706A85B20098FFF7AE
:100F400053FD172815D01C2803D00CE00D20C043FA
:100F500042E7002D1AD13046FFF746FD7168800246
:100F600089B2884205D10298FFF798FD0620C04358
:100F700032E7029901208840CA494988084203D0D3
:100F8000002D03D1002027E7002DD5D0A54200D2A7
:100F90002C46224603990298FFF756FDC24840218D
:100FA00038180546FFF722FD2846FFF71DFD0028EB
:100FB000FAD1204610E7FFB583B003981E461546C8
:100FC000082803D90020C04307B0F0BD8404B64808
:100FD00010382018FFF708FD0007000F022804D082
:100FE000042802D00420C043EEE7002D1DD0307845
:100FF000717800024018B17800024018F1780002C0
:10100000C84202D10B20C043DEE70C9800280FD065
:10101000A548203020180746FFF7E6FC42280AD0F2
:10102000222808D00620C043CEE70D20C043CBE7DE
:101030000A20C043C8E79D483178F9382018FFF7E7
:10104000D5FC9A487178FA382018FFF7CFFC9748FA
:10105000B178FB382018FFF7C9FC9448F178FC38C8
:101060002018FFF7C3FC90490C98F0316118086212
:101070008E48203820180190FFF7B6FC8006000C3F
:10108000854200D9054603990120884000900198C7
:10109000406886B23846FFF7A7FC002808D081498F
:1010A00000984988084206D0B54204D900208BE751
:1010B0000320C04388E7B542E9D82A46049903983B
:1010C000FFF7AEFC7848202120180746FFF78EFC7A
:1010D0007548183026183846FFF786FC0028FAD1E4
:1010E0007148103024182046FFF77EFCC006C00E61
:1010F000C10605D530461021FFF778FC284663E786
:101100000007F0D530460821FFF770FC0C20C043E3
:101110005AE7FFB5002485B00646082802D9601EAC
:1011200009B0F0BD6048B50410382818FFF75CFC22
:1011300004900007000F022804D0042802D00420E5
:10114000C043EDE70798002805D059487700C05BF9
:10115000002803D022E00D20C043E1E753482038A7
:10116000281803905048203028180125B5400290D7
:101170000398406A84B20298FFF736FC002806D034
:1011800048484088054207D0002C03D006E00320E1
:10119000C043C5E70020C3E7002CE9D04148002147
:1011A000801D81550498B20441073F48490F151826
:1011B00002291FD0042957D021463046FFF758FC9A
:1011C0003B48C45328464021FFF710FC2846FFF750
:1011D0000BFC0028FAD13648C15B091B0904090C35
:1011E000C15305D02F480122801D815D11438155D7
:1011F000204695E72E4CE05B002865D10822694621
:101200003046FFF721FC28464021FFF7EFFB284638
:10121000FFF7EAFB0028FAD16846017808980170C8
:1012200068464178089841706846817808988170CE
:101230006846C1780898C17068460E9900790880A0
:1012400001026846407908180E990880684680793E
:1012500001026846C0790818E05332E02246304661
:101260000699FFF7F1FBADE7114CE05B00282BD1AD
:10127000022269463046FFF7E7FB28464021FFF788
:10128000B5FB2846FFF7B0FB0028FAD16846007886
:10129000010268464078081880B20649E053884247
:1012A0000FD909E008000020100001462002014685
:1012B000EC010020EA0500003046FFF7EFFB9F48F5
:1012C0002EE79F4980208855E45B07988442C5D962
:1012D0000446C3E7F8B514460646082802D900209C
:1012E000C043F8BD964F9748BF1FB20410187D88C1
:1012F0000B0004F0CBFF0805131719212A333C41DA
:1013000021780120B040012902D0002903D033E028
:101310002843788029E085437D8026E0F540E80772
:10132000C00F19E0884801E0874820301018FFF707
:101330005BFB8002208018E020781F281CD8C106A3
:101340008048C90E001D10180DE07E48001F1018BF
:10135000FFF74AFBC006C00E207006E021781F2967
:101360000AD8C906C90EFFF741FB0120F8BDFFF7F7
:101370003BFBC006C00E20700920C043F8BDF8B585
:101380001546082802D90020C043F8BD84046E4BDE
:101390006C4A6C48803BDC3224380427E618A218DB
:1013A0002018FF430B0004F071FF084F050910429D
:1013B0001316444F63482978E43002E061482978E5
:1013C000E0302018FFF712FB31E0288810612EE092
:1013D000288810622BE0FFF707FB0007000F0128A9
:1013E0002DD13046FFF700FB002802D00120C0437A
:1013F000F8BD54482221143820180546FFF7F6FAA4
:101400005048001F26180DE03046FFF7EDFA0007A0
:1014100008D54C480821001D2018FFF7E7FA0C20DA
:10142000C043F8BD2846FFF7DFFA0028ECD10120C1
:10143000F8BDFFF7D9FA0007000F012801D03846A0
:10144000F8BD29783046BDE70920C043F8BDF8B59E
:1014500014460646082802D90020C043F8BDB5044A
:101460003848384A384B2438DC32EF182818AA1884
:101470000B0004F00BFF0D080D1215173060323E03
:10148000404248546000FFF7AFFA0009000102E053
:101490002C48E43033E020703DE02A48E0302EE074
:1014A000106920702848D9382818FFF79DFA207055
:1014B0002548DA382818FFF797FA60702248DB3899
:1014C0002818FFF791FAA0701F48DC382818FFF79A
:1014D0008BFAE0701FE0106A1CE0FFF785FA000746
:1014E000000F012821D1184880382818FFF77CFA0E
:1014F00010E078682080786A208012480C30281824
:10150000FFF772FAC7E7FFF76FFA012805D00F4916
:101510007000085A20800120F8BD786AFAE7FFF7CA
:1015200063FA0007000F012802D00420C043F8BD71
:101530000348805DAFE70120C043F8BD17FCFFFF03
:101540000E0000202400014600020146EC010020AC
:101550007047704770477047007870470170704758
:10156000002070477047FE4A002804D0002902D0AE
:10157000D16090607047FB489060FB48D060704736
:10158000F74A002804D0002902D051611061704749
:10159000F6481061F6485061704710B5F04A13885C
:1015A000DC05FDD5002804D0002902D0D16190616E
:1015B00010BDF0489061F048D06110BD10B5E84A08
:1015C00013889C05FDD5002804D0002902D0D161E4
:1015D000906110BDE9489061E948D06110BD0020DC
:1015E000C04370470020C043704710B5E548FFF77F
:1015F000FBF90446E3481030FFF7F6F90002001942
:1016000080B210BD10B5C1B2040A09090901DD4854
:10161000FFF7ECF9DB4821461030FFF7E7F910BD82
:10162000D84810B5001FFFF7DFF90446D5480C3045
:10163000FFF7DAF90002001980B210BD10B5C1B28F
:10164000040AD04809090901001DFFF7CFF9CD4868
:1016500021460C30FFF7CAF910BDF0B593B0CA4867
:10166000FFF7C2F91190C848401EFFF7BDF9C64CFC
:101670001090A41E2046FFF7B7F9651E0F9028466C
:10168000FFF7B2F90E90A01DFFF7AEF90D90601DA7
:10169000FFF7AAF90C90BC480830FFF7A5F90B90AA
:1016A000B948C01DFFF7A0F9B74E0A90B61D3046E5
:1016B000FFF79AF90990E01DFFF796F90890B01D21
:1016C000FFF792F90790701DFFF78EF90690301D15
:1016D000FFF78AF90590F01CFFF786F90490AA48F5
:1016E0001030FFF781F9A84F03900F373846FFF706
:1016F0007BF90290781EFFF777F90190F01DFFF754
:1017000073F900908021A148FFF770F99F48FFF717
:101710006BF9A01C1199FFF769F9601C1099FFF78C
:1017200065F920460F99FFF761F928460E99FFF7F2
:101730005DF9A01D0D99FFF759F9601D0C99FFF790
:1017400055F9B01C0B99FFF751F9701C0A99FFF776
:101750004DF930460999FFF749F9E01D0899FFF75F
:1017600045F9B01D0799FFF741F9701D0699FFF77C
:101770003DF9301D0599FFF739F9F01C0499FFF781
:1017800035F9781C0399FFF731F938460299FFF7CC
:101790002DF9781E0199FFF729F9F01D0099FFF73F
:1017A00025F913B0F0BDF8B50D4606460024FFF745
:1017B00054FF002E14D00022B05C521C001952B20B
:1017C00044B2082AF8DB102C17DC714F0024A00467
:1017D000315DC019FFF70AF9641C64B2082CF6DB0E
:1017E000002D19D0002108462A5C401C511840B237
:1017F00049B20828F8DB102902DD0020C043F8BDFB
:10180000634E00242036A004295D8019FFF7EEF80E
:10181000641C64B2082CF6DB0020F8BD70B50C46E1
:101820000246002108464D1E130004F02FFD090654
:10183000091511181C2E2E202E00FFF70EFF22E096
:10184000002C02D0214620460831FFF7ACFF70BDC6
:101850002088FFF7F3FE16E0FFF7E2FE05E02088A0
:10186000FFF7D0FE0FE0FFF7C0FE20800BE03C4802
:1018700082782270C27862700279A2704279E27036
:10188000807920716171002070BD284670BD10B54F
:1018900004463D484130FFF7A7F820703A483D30F4
:1018A0000068608010BD10B50446017836484130AC
:1018B000FFF79CF8344960883D31086010BD10B5D1
:1018C0003248FFF791F810BD70B50446C7200442B6
:1018D00002D00020C04370BD2C4D2846FFF784F88D
:1018E000204301462846FFF781F8002070BD10B55F
:1018F00004462548FFF778F820702348401EFFF77C
:1019000073F860702048801EFFF76EF8A0701E48C4
:10191000C01EFFF769F8E0701B48001DFFF764F870
:1019200020711948C01CFFF75FF860711648083035
:10193000FFF75AF8A0731448C01DFFF755F8E0737D
:101940001148801DFFF750F820740F48401DFFF725
:101950004BF860740C480C30FFF746F8A07219E0A1
:1019600020000020511500005315000055150000FF
:1019700057150000591500005D15000061150000A5
:101980006515000004210046036000460023004660
:10199000000201465F480B30FFF726F8E0725D4811
:1019A0000A30FFF721F820735A480930FFF71CF876
:1019B000607358481030FFF717F8A07155480F3082
:1019C000FFF712F8E07153480E30FFF70DF8207260
:1019D00050480D30FFF708F860724F480178A17445
:1019E0004178E17481782175C07860754A48401E5D
:1019F0000078A07510BD10B5044601784548FEF783
:101A0000F5FF44486178401EFEF7F0FF4148A17899
:101A1000801EFEF7EBFF3F48E178C01EFEF7E6FFB1
:101A20003C482179001DFEF7E1FF3A486179C01C6E
:101A3000FEF7DCFF3748A17B0830FEF7D7FF3548BB
:101A4000E17BC01DFEF7D2FF3248217C801DFEF7EE
:101A5000CDFF3048617C401DFEF7C8FF2D48A17ABC
:101A60000C30FEF7C3FF2B48E17A0B30FEF7BEFFC8
:101A70002848217B0A30FEF7B9FF2648617B0930F0
:101A8000FEF7B4FF2348A1791030FEF7AFFF2148DD
:101A9000E1790F30FEF7AAFF1E48217A0E30FEF7DB
:101AA000A5FF1C48617A0D30FEF7A0FF1A48A17C03
:101AB0000170E17C4170217D8170617DC1701649AA
:101AC000A07D491E087010BD10B50C46030004F03F
:101AD000DDFB0604080C1014181D0846FFF78BFFE9
:101AE00012E00846FFF703FF0EE00878FFF7ECFE70
:101AF00010BDFFF7E4FE207006E00846FFF7D3FEB6
:101B000002E00846FFF7C3FE002010BD0020C043DE
:101B100010BD0000036000461900002070B50446A7
:101B2000012080032061450029462046FEF711FD73
:101B3000012001F0A0F829462046FEF718FD0120FB
:101B400001F099F870BDF1B500200126F6030446B6
:101B50007710450031460098FEF7FBFC012001F0AC
:101B60008AF831460098FEF702FD012001F083F863
:101B700039460098FEF7D9FC2843641C102CE8D3A2
:101B8000F8BD70B50446012080036061012001F0BA
:101B900072F80125ED0329462046FEF7DAFC012004
:101BA00001F069F829462046FEF7E1FC012001F02A
:101BB00062F870BDF7B514462020001B8140012754
:101BC000BF030D467E0018E00098002D394602DA6A
:101BD000FEF7BFFC01E0FEF7CAFC012001F04BF864
:101BE00031460098FEF7B5FC012001F044F831467B
:101BF0000098FEF7BCFC6D00641E002CE4D1FEBD15
:101C000070B50C46002105462022C943FFF7D2FFDC
:101C1000042206212846FFF7CDFF0522072128468A
:101C2000FFF7C8FF052221462846FFF7C3FF2846D5
:101C3000FFF7A7FF2846FFF786FF04462846FFF771
:101C40006DFF204670BD10B5432001210006FFF74F
:101C5000D7FF4007C00F10BD70B50C4616460021D7
:101C600005462022C943FFF7A5FF04220521284687
:101C7000FFF7A0FF052207212846FFF79BFF05225B
:101C800021462846FFF796FF022211462846FFF715
:101C900091FF102231462846FFF78CFF2846FFF7B8
:101CA0003DFF70BD0122D202904203D02121C90123
:101CB00008400246002143200006CDE77CB51446CB
:101CC0000D462143009101216A4611716946FEF7D4
:101CD000BCFB012221461046FEF7A5FC0122294645
:101CE0001046FEF7A0FC7CBD10B5FE4CFE482178E6
:101CF000FEF77CFEFC486178401EFEF777FEFA484E
:101D0000A178801EFEF772FEF748E178C01EFEF74C
:101D10006DFEF54808342178001FFEF767FEF24893
:101D20006178401FFEF762FEEF48A178801FFEF742
:101D30005DFEED48E178C01FFEF758FEEA48241F1B
:101D400021780838FEF752FEE74861780938FEF737
:101D50004DFEE548A1780A38FEF748FEE248E178F2
:101D60000B38FEF743FE10BD10B5E04C8021204635
:101D7000FEF73CFE2046FEF737FEFFF7B5FFD94CD5
:101D8000D948353421781038FEF730FED6486178CE
:101D90001138FEF72BFED448A1781238FEF726FE44
:101DA000D148E1781338FEF721FECF4821790C386D
:101DB000FEF71CFECC4861790D38FEF717FE10BD0A
:101DC00010B5CA4C80212046FEF710FE2046FEF7D3
:101DD0000BFEC44CC448353421781038FEF706FE9B
:101DE000C14861781138FEF701FEBF48A17812386A
:101DF000FEF7FCFDBC48E1781338FEF7F7FDBA4862
:101E000021790C38FEF7F2FDB74861790D38FEF7FD
:101E1000EDFD10BDB34B10B5DB1FB54C5C62B54C8E
:101E20009C62B54CDC62002800D05862002900D0CA
:101E30009962002A00D0DA6210BD30B5A94B0120AA
:101E4000DB1F996B08704870062088700020C870EE
:101E50005A6B120E0A715A6B120C4A719A8E120A40
:101E60008A719A8ECA71996B802208818A72C872AF
:101E7000996B1A46087348738873C873087448745A
:101E80008874C874087548758875C875087648766A
:101E90008876C8763C3214780C7754784C779478EE
:101EA0008C77D478CC770C4615792034257052790C
:101EB000627006228C18521CD2B22077102AF9D3F5
:101EC0009A6B002154182034491CC9B22073402950
:101ED000F8D39A6B002154186034491CC9B220739E
:101EE0008029F8D3986B6321E0300173822242731A
:101EF00053228273C17330BDFEB5FFF79EFF794850
:101F00003522C01F836BF021CA540122F121CA542B
:101F1000F221CA543D22F321CA540722F421CA54A3
:101F20000122F521CA5401463C310A78F621CA54EF
:101F300001463C314A78F721CA5402463C32947833
:101F4000F822D45402463C32D478F922D4540246C2
:101F50003C321479FA22D45402463C325479FB22A2
:101F6000D4540C21FC22D1540027FD21CF5412223D
:101F700004463946423406E09E18E036521C491C9D
:101F8000357392B289B2655C002DF5D1846B554BE7
:101F9000A6183533DD78E0363573521C92B2A61898
:101FA0001D79E0363573521C92B2A5185B79E03585
:101FB0002B73521C92B2CB1C511A0919E0310B72CF
:101FC000816B37238C18E0342373521C92B28C1827
:101FD000521C92B28D180623E03423730124E0359D
:101FE0002C73521C92B28D180324E035521C2C73B2
:101FF00092B28C18E0342373521C92B28C180F23C7
:10200000E0342373521C92B28B183A24E0331C73D1
:10201000521C92B28B18E0333B24521C1C7392B2B8
:10202000FF238C18E0342373521CFF2492B23934FE
:1020300004E08D18E035521C2F7392B2A242F8D3FF
:1020400069460B714B718B71CB71432100918922D1
:10205000816B01AB92008078FEF7ADFFFEBDFEB54F
:10206000FFF7EBFE1F4C0020E41FE11D20560B463E
:102070002933FF2703284AD0042848D0684607712F
:1020800047718771C771A26B3520F025A8540120D4
:10209000F125A8540320F225A8543D20F325A85487
:1020A0000720F425A8540120F525A8540D48F6254D
:1020B00035300078A8540B48F72535304078A854BF
:1020C0000848F82535308078A8540648F925353079
:1020D000C078A8540348FA2535300079A85401483F
:1020E00035300BE047000020136000460023004617
:1020F000E91C0000691D0000C11D00004079FB259E
:10210000A8546D46ED791020FF2D16D039E0A06B54
:1021100000228272C2720A7802734A7842738A7805
:102120008273CA78C2731A78684602715A7842710B
:102130009A788271DA78C271A5E73225FC2085543D
:102140000425FD2085540E78FE2086544E78FF200D
:1021500086548878AE01B054C978701C81543621F9
:10216000401C8154401C85541978401C8154597876
:10217000401C81549978401C8154D978401C81546A
:102180001C2013180C21E0331973401C1318002174
:10219000E0331973F94D401C05E01618E036401C79
:1021A000337380B2491C6B5C002BF6D1A36BF34AEE
:1021B0001E18921FD578E0363573401C80B21E1869
:1021C0001579E0363573401C80B21D185279E03520
:1021D0002A73401C82B2C81C511AC918E031087217
:1021E000A06B37218318E0331973521C91B2431846
:1021F0000822E0331A73491C89B243180122E033E4
:102200001A73491C89B243180322E0331A73491C1C
:1022100089B243180622E0331A73491C89B2431865
:102220000F22E0331A73491C89B242183A23E03274
:102230001373491C89B242183B23E032491C1373C3
:1022400089B242181F23E0321373491C89B2421825
:102250002123E0321373491C89B24218E03217730C
:10226000491C0022FF2389B2393303E04518E035C9
:102270002A73491C9942F9DB43200090892201AB63
:102280009200A078A16BFEF796FEFEBD1CB5FFF78D
:10229000D4FDBA4800214238806B35228172C17268
:1022A000F0210A540122F1210A540422F2210A5495
:1022B0003D23F3210B540722F4210A540122F52176
:1022C0000A54AE49F622891F0B7813544B78F72233
:1022D00013548B78F8221354CB78F92213540B79CA
:1022E000FA2213544A79FB210A543222FC210A545F
:1022F0000422FD210A54A1493B390A78FE210A54DF
:102300009E493B394A78FF210A549C493B398A78D7
:10231000FF2101310A5499493B39CA78FF21023122
:102320000A543622491C0A540422491C0A5493496F
:10233000FF2212390B78053213544B78521C135478
:102340008B78521C1354CA78FF2108310A54FF229B
:10235000491C0A541D210023FF2239324418E0345D
:10236000491C23739142F9DBFF20694608714871CB
:102370008871C87143200090804889224238816B5F
:1023800001AB92008078FEF716FE1CBD7FB57B4C3A
:102390007B4A423CA07881048918496A0A04120CDD
:1023A00027D001A9009102ABA16BFEF7B2FE82B269
:1023B0006846808843283CD1A06B21463C31037F8E
:1023C0000D78AB4215D1457F4B789D4211D1837F6B
:1023D0008D78AB420DD1C37FCD78AB4209D1034696
:1023E00020331D780E79B54203D15B7849798B4251
:1023F00002D0002004B070BDF03000258118F03903
:1024000015E00278332A3ED008DC002A15D0012AD4
:1024100018D0032A1AD0062A06D125E0352A0ED074
:10242000362A3FD0FF2A06D04278801C8018884286
:10243000E7D368B2DEE70846F9E7401CF7E785789E
:10244000C01CF4E74D4A8378333A2EE04B4A437878
:102450008678373A1670C67856700679967046793F
:10246000801DD670C0180CE0444B427886782F3B14
:102470001E70C6785E7006799E704679801DDE708B
:102480008018001FD3E78278A261C37812029A18DD
:10249000A261037912029A18A261437912029A1872
:1024A000A26109E0354A8378123A1370C3785370F9
:1024B000037993704379D370801DB8E72F480021CA
:1024C0004238C161052202624170704770B52B4CE1
:1024D0000125423C6157002622469057022917DA0F
:1024E000E269216A914223D2012804D0022805D052
:1024F000042805D102E0FFF7FFFC01E0FFF7AFFD84
:10250000E661E069401D20626078401C60700FE069
:10251000012804D0022805D0042807D102E0267043
:10252000002503E0FFF7E8FC01202070FFF7C6FF5D
:10253000284670BDF8B5134E3046FEF755FA0546ED
:1025400003213046FEF752FA0C4B0F483B3BDC1F91
:10255000009011220DA1A078FEF72DFD0746294617
:102560003046FEF743FA0D371AD0FFF78FFEE069C9
:10257000E169091A0229FBD30020F8BD820000207E
:10258000000201464460004688130000434845436A
:102590004B5F49505F434F4E464C49435400000047
:1025A0000120EAE7F8B5B74C207806281ED0A078BD
:1025B000B54980044018FEF717FA222805D00023F9
:1025C00044220221A078FEF791FA0125FFF7DEFEF2
:1025D000C1B20022A256AB4800260127C01D13003D
:1025E00003F054FE05060D1C314C2F000520C4E7F6
:1025F000067046708670C670FFF77EFC5EE00229AA
:102600001CD1A16B0A7C02704A7C42708A7C827069
:10261000C97CC170FFF723FD02204BE005290BD1D7
:10262000FFF788FF002801D0606A3FE0FFF746FF10
:10263000E06A8047267004E006293DD0FFF746FF98
:102640000546284699E7A16904254A1CF9D0E269A4
:1026500049089142F5D28B490278C91C0A70427828
:102660004A7082788A70C078C870606B401C606362
:10267000FFF7F5FCFFF722FF04201BE004250529E6
:10268000DAD180496670C91C0A7803789A420BD166
:102690004A7843789A4207D18A7883789A4203D15C
:1026A000C978C078814202D0A06A03258047FFF72D
:1026B00005FF03202070C4E7FFF700FF2770C0E785
:1026C00010B5704CA078FEF7E9F90620207010BD17
:1026D000F3B56E4F83B00646002538460095FEF7E9
:1026E00083F9684C3C342070781EFEF77DF96070E9
:1026F000B81EFEF779F9A070F81EFEF775F9E070C4
:10270000381DFEF771F92071F81CFEF76DF9607144
:10271000014620786278E3781043A2781A43104388
:102720002279104308431FD1257008206070DC20F7
:10273000A070E5702571294665713846FEF756F997
:102740006178781EFEF752F9A178B81EFEF74EF9AF
:10275000E178F81EFEF74AF92179381DFEF746F9AF
:102760006179F81CFEF742F9464F4949BE7004985A
:10277000B863E0786379421821798A1848409A183A
:102780005840801878636846017840480C461030FD
:10279000FEF72CF968464078029001463B480F301E
:1027A000FEF724F9684680780190014637480E30DC
:1027B000FEF71CF96846C678344831460D30FEF7FE
:1027C00015F9324821461030FEF710F92F480299CA
:1027D0000F30FEF70BF92D4801990E30FEF706F980
:1027E0002A4831460D30FEF701F9284821460830C5
:1027F000FEF7FCF825480299C01DFEF7F7F82348BC
:102800000199801DFEF7F2F820483146401DFEF781
:10281000EDF8FFF753FE3D7005B0F0BD1948C169F2
:10282000491CC16170471749C91D0A7802704A786E
:1028300042708A788270C978C170704711490B3133
:102840000A7802704A7842708A788270C978C170BA
:1028500070470C490F310A7802704A7842708A78C2
:102860008270C978C1707047064913310A780270C6
:102870004A7842708A788270C978C170704701487E
:102880008069704740000020300001460360004628
:1028900078563412F0B587B001F008FE04466D4654
:1028A000A81DFFF7C0FF03A802300690FFF7C6FF80
:1028B00002A802300746FFF7CCFF04A80230064604
:1028C000FFF7D2FF214606221731684601F0D6FEF7
:1028D00020460422A91D1D3001F0D4FE204604220A
:1028E0002130069901F0CEFE2046042239462530DB
:1028F00001F0C8FE204604223146653001F0C2FED8
:102900006034E078002801D0022000E00120694610
:1029100088750020FFF7D8F807B0F0BD7047704702
:1029200070477047704710B500F0ADF910BD7047A3
:1029300070477047704770477047704770477047DF
:1029400070477047704710B501F067FA10BD7047C7
:1029500070477047704770477047704770477047BF
:1029600070477047704710B5C0B2FEF718F810BD39
:1029700010B5FEF726F8FEF712F810BD0020C04390
:10298000704710B5C0B2FEF70AF810BDFEE70000B0
:1029900010B501F08BFD6030C078002806D0D64815
:1029A0004078012803D0D5A002F06EF810BDFFF7E3
:1029B00066FF0146D6A002F067F810BD70B500248E
:1029C000DD490320FFF784FEDD49DC4A0846FFF7B6
:1029D00021FAFFF7E7FD0546042807D0002D01D1B5
:1029E000641CE4B2032C03D9FFF76AFE68B270BD21
:1029F00000F07AFFEDE738B501F058FD0446D1A0AC
:102A000002F042F8D0A1DDA002F03EF8DDA002F015
:102A10003BF8E6A00090A37D627D217DE5A002F059
:102A200033F8C9A1D5A002F02FF838BD03C880F350
:102A30000888084700B5C1B000216A460B78535496
:102A4000491C0829FAD30821435C5354491CA8297E
:102A5000FAD3A82001781154401CFF28FAD972B685
:102A600000231A461946122001F0DAF8FF23013339
:102A70006A460021222001F0D3F862B641B000BDC1
:102A8000F0B58FB001F012FD0446002000900190D7
:102A9000182102A802F0EFFB182108A802F0EBFBB6
:102AA000E07D0025002805D1207E082802D1607E27
:102AB000DC2842D000236A461946184601F01EF968
:102AC00068460078002807D168464078082803D176
:102AD00068468078DC2834D0C148882127460170B8
:102AE00002AE4037BFA001F0CFFF0025FDF769FF20
:102AF00070556D1CEDB2152DF8D308A902A800F091
:102B0000D2F900280BD0787B002803D008A99BA01D
:102B100001F0BAFF182102A802F0ADFBE2E70020A5
:102B200001F005F90023224617321946184601F034
:102B30002CF901F0BDFC01F099FD012528460FB0EC
:102B4000F0BD204606226946173002F035FB01F041
:102B50008DFDF3E700B5C1B00020694602780A5444
:102B6000401CFF28FAD972B6FF230A466F210133B1
:102B70000902222001F054F862B67FE738B5044616
:102B8000FDF734FB9C4902F0D6FB604300E0401E99
:102B900000900028FBD138BD01F088FC044600F00D
:102BA0007AF8FDF723FB944902F0C5FB93490860CE
:102BB00008202870924868802846FEF774FE01F0CD
:102BC000FAFB01F02BFD00262A200655FFF758FFDF
:102BD0002546A035287A01280CD1022001F027FAD9
:102BE000802807D121462E72AB31002002F09BFBDA
:102BF00001F03CFD07252D032868401C07D028461E
:102C0000FFF718FF2968686881F308888047254620
:102C10004035687B002801D0FFF7EDFE6034E07896
:102C20000127002803D0FFF7C9FE042820D001F0B7
:102C300024FE687B002803D001F081FDFFF7A8FE89
:102C40002D480770002001F0F8FB6E4D00F04CFE9F
:102C5000E078002801D0FFF7A5FC28780028F5D0FF
:102C6000002001F002FC012001F0FFFB2E70EDE7D7
:102C700021484770DDE701B51F4800994160416870
:102C80000029FCD108BD1C484168002902D04168D8
:102C9000491E4160704710B501F0B5FB5A4900204C
:102CA0000A46FDF707FB5948FFF768FF6F2000024F
:102CB0000168491C1DD0FFF7BDFE01F08BF801F043
:102CC0000AF9FDF793FA7D21C90002F034FB50495F
:102CD000401E88420CD84F4948614F480722C369BB
:102CE0001B021B0A4C042343C361002088610A6154
:102CF00010BDFFF72FFFE0E79000002020232044C5
:102D0000484350204661696C65640D0A000000006C
:102D100020232044484350204950204C656173656E
:102D2000642074696D65203A202575207365636F92
:102D30006E64730D0A000000FC0100201D290000D4
:102D4000952800000D0A00003D3D3D3D3D3D3D3DC7
:102D50003D3D3D3D3D3D3D3D3D3D3D3D3D3D3D3DA3
:102D60003D3D3D3D3D3D3D3D3D3D3D3D3D3D3D3D93
:102D70003D3D3D3D3D3D3D3D3D3D000025730D0A42
:102D800000000000205B57373530305D20536572FE
:102D900069616C20746F2045746865726E6574207B
:102DA0004465766963650D0A000000005374616232
:102DB0006C650000203E3E204669726D7761726549
:102DC0002076657273696F6E3A20426F6F742025AA
:102DD000642E25642E25642025730D0A0000000052
:102DE00098000020494E50555420464952535420D3
:102DF0004D41433F0D0A000010270000002000460F
:102E0000C4090000B401002000127A00DC050000B3
:102E1000FFFFFF0000E000E004ED00E0F8B5002750
:102E20000D4604460F70F94E09E002F047F90246DC
:102E30002046316802F064F9002804D0361D30685D
:102E40000028F2D129E03068002826D0EF48301A57
:102E50008005060E2B2E07D02C2E11D0A11C284643
:102E600002F006F93046F8BD207A0D2815D1607AB7
:102E70000A2812D10622A11C284602F09DF9F1E78A
:102E8000002002E02954401CC0B2211889780D2985
:102E9000F8D12118C9780A2901D0FF20F8BD2F5494
:102EA00028184770DEE7F0B599B00F46054601F0E7
:102EB000FDFA1490002410A98C830421384616943E
:102EC00002F0D7F9D2A12846E8E304A9FFF7A6FF4C
:102ED0000646FF286FD004A802F0F0F880B20090F8
:102EE0006846007C002824D0C84988222439097803
:102EF00011426FD0330003F0C9F936F2F1F1F0EF6F
:102F0000EEEDEEECEBEAE9E8E7E6E5E4E3E3E3E344
:102F1000E3E3E2E1E0DFDEDDDCDBDAD9D8D7D6D5EA
:102F2000D4D3D2D1D1D0D1D1D1D1D1D1D1D1CF5E01
:102F3000EE5EB649B0000858330001783970407829
:102F40007870BF1C03F0A2F9361C2F383D41EE47C4
:102F5000EE4B4F53565B5E696C75EDEDEE7FEDED1C
:102F60008193989BEFF3F7FBFFE7E6E5E4E3E2E10B
:102F7000E0DFDFDEDFDFDDDCDBDAD9D8D7D6EED588
:102F8000149B149A149914981B7FD27E897E407EDC
:102F9000009001A80EC014989EA1037EC27D384601
:102FA00001F080FD85E11498A2A1807D0090149825
:102FB000437D027DEBE0D8E3149AA1A13846521D6F
:102FC000FCE014986030C27802E014982030B8E039
:102FD0009CA165E1C6E3149860308278F8E7149804
:102FE0004030427BF4E7149840300278F0E71498C0
:102FF000413001E01498433041780078B0E01498F3
:103000002130ABE01498149920300078C97F0091EA
:1030100001901498837F427F13E0149820300AE0D7
:10302000149820300279C178019200918378427817
:1030300007E014986030027AC17901920091837997
:10304000427981A10FE0834AC2E7149840790028B1
:1030500067D014991498097FC07E0090149801914C
:10306000837E421D7CA1384601F01CFD21E11498AD
:103070002330417B007B73E01498213069E0149881
:103080006030017900292BD0407A002849D0149A69
:103090006BA13846693291E043E316E35FE303E353
:1030A000DEE2CDE2C1E2A8E297E287E277E267E200
:1030B0005BE24FE241E230E206E2F6E1E6E1D7E12F
:1030C00001E2C0E1AAE19EE185E178E168E15BE12E
:1030D0004FE144E138E12FE32CE120E11CE105E17F
:1030E00014982030827B417B01920091037BC27A4D
:1030F000A7E7EEE0E8E0E3E0D4E0CAE0C2E07CE08D
:1031000073E067E063E05FE04FE044E038E033E025
:103110002DE028E020E01AE015E010E00BE006E0EA
:1031200001E04EE0D3E014984030827950E71498E3
:103130004030C2794CE714984030027A48E714983E
:103140004030427A44E714984030827A40E714983D
:103150002330417C007C03E014982330417D007DC6
:103160000A02024334E714982030427E30E7149874
:103170003DA12030827E93E014988030C27E27E704
:1031800014988030C17F0091837F427F38A13846F8
:1031900001F088FC8DE014984030807B002810D02E
:1031A000149A27A138464E3208E014984030007E29
:1031B000002806D0149A22A13846583201F072FC39
:1031C00077E020222EA16BE08120000270E04120F8
:1031D00040026DE00D48882124380078084201D073
:1031E000102065E04320400262E00848882124382E
:1031F00000780842F6D020205AE00448882124387C
:1032000000780842EED0802052E00000BC00002090
:103210000D0A0000253032583A253032583A253010
:1032200032583A253032583A253032583A25303221
:103230005800000025782E25782E25780000000003
:10324000257300002564000025642E25642E256466
:103250002E256400D60B000025732D2530327825ED
:1032600030327825303278002530325800000000A6
:1032700025303258253032582530325800000000B1
:10328000256300001498FB494030407980000A58BB
:1032900005E014982030807A8100F7484258F7A161
:1032A00038468BE7F448083801788820014299D0E5
:1032B0000443F348044210D00020BF1E387044E29B
:1032C00014988030027F83E62120C001F0E70022BD
:1032D0007EE6212080020443DBE7EAA1384601F0C4
:1032E0005FFF384601F0EAFEC7192EE21498C07D50
:1032F000002807D11498007E082803D11498407E36
:10330000DC2809D0149AE0A104A8173200F02EFCA2
:10331000A3E18520000217E28320000214E200F0FE
:10332000DCFB00990129F4D10128F2D8149960310D
:10333000C8700AE200F0D1FB00990129E9D1032805
:10334000E7D81499203119E100F0C7FB0099012951
:10335000DFD10128DDD8149960318870F5E100F0E3
:10336000BCFB00990129D4D10128D2D8149940314D
:1033700099E000F0B2FB00990129CAD10128C8D810
:10338000149940310870E0E116AAC0A104A801F028
:10339000EBFCBF4916988842BBD8149941310AE02A
:1033A00016AABAA104A801F0DFFCB9491698884210
:1033B000AFD8149943310870000A4870C5E116AAC5
:1033C000B2A104A801F0D0FCB14916988842A0D857
:1033D00014992131FDE015A904A800F01BFB002879
:1033E00097D010A8017D1498417710A8417D1498BA
:1033F000817710A8817D1498C17710A8C17D149899
:1034000020300170A1E115A904A800F003FB0028F9
:10341000E6D0149810A9097D20301EE015A904A853
:1034200000F0F8FA0028DBD0149810A9097D2030AC
:10343000417010A9497D817010A9897DC17010A9C2
:10344000C97D017181E115A904A800F0E3FA002803
:10345000C6D010A91498097D6030417110A9497D2A
:10346000817110A9897DC17110A9C97D01726CE1BA
:1034700000990E2990D8202804D0149A7FA104A87E
:10348000521D1AE11499002048715EE116AA7FA12D
:1034900004A801F069FC7E491698884288D81499DE
:1034A00023310873000A48734FE116AA77A104A8D4
:1034B00001F05AFC76491698884288D8149921312F
:1034C0000874000A487440E115A904A800F0A2FAA3
:1034D000002811D01498002160300171149810A9AF
:1034E000097D2030C17210A9497D017310A9897D21
:1034F000417310A9C97DD5E0149801216030017194
:103500006946097C202905D0149804A9693001F086
:10351000AFFD1AE10021417217E117AA5DA104A8CD
:1035200001F022FC00980228A4D810A8808B0D2856
:10353000A0D814994031887107E100F0CEFA014615
:103540000098012800D0E4E60129FCD81498403006
:10355000C171FAE000F0C1FA00990129F3D1022803
:10356000F1D8149940310872EFE000F0B6FA0099F2
:103570000129E8D10128E6D8149940314872E4E0E5
:1035800000F0ABFA00990129DDD10228DBD81499AB
:1035900040314A79012A00D100208872D5E016AA6C
:1035A0003AA104A801F0E0FB394816998142CAD833
:1035B000149823300174090A4174C6E016AA33A195
:1035C00004A801F0D1FB324916988842BBD814995F
:1035D00023310875000A4875B7E017AA2DA104A881
:1035E00001F0C2FB00980328ADD810A8808BFF28FB
:1035F000A9D8149920314876A7E000980228A2D1D2
:1036000004A800F052FA00289DD017AA22A104A80D
:1036100001F0AAFB10A8808BC1B2149820308176EB
:10362000002900D0012181778FE000F056FA00993F
:10363000012988D1012886D814998031C87684E080
:10364000009806288AD104A800F02FFA0028DBD0C1
:10365000149904A89D3100F05EFA0028D4D074E0DB
:103660000099092987D8202819D0149A03A104A801
:103670004E3222E0C0010020A0000020257300008F
:10368000B08000000D0A00002E3A2D00256C640069
:10369000FFFF0000256400002578000078E0149802
:1036A00000214030817350E0009909298ED82028EC
:1036B00006D0149AB5A104A8583201F055FB44E095
:1036C00014980021403001763FE016AAB04904A8C2
:1036D00001F04AFB19211698C902884205D91499AC
:1036E0000020AB3101F01FFE13E6149980B2AB311C
:1036F00001F019FE14980121A0300172402004430A
:103700001498149920300078C97F00910190A14A43
:1037100014980292837F427F9FA1384601F0C2F93C
:1037200013E000F0DAF900990129DDD10128DBD896
:1037300014998031087708E000F0CFF90099012949
:10374000D2D10128D0D800E0044320041ED50020A7
:10375000A870FF2E0CD09648B100435809E0812094
:103760000002F1E743204002EEE721208002EBE770
:103770002B460120C003201A001281008C48DC3047
:1037800042588CA1384601F08DF907E08BA100204A
:1037900001F02EFC050001D0FFF797FB204619B081
:1037A000F0BDF3B599B0054600F080FE0446804EAA
:1037B0000020243E169030708148FDF715F900284E
:1037C0007ED0222826D17F48406A0204120C21D0E4
:1037D00015A800901A9F17AB29460120FDF799FC08
:1037E00080B2281800212038C17705A92846FFF7A4
:1037F00015FB2B286CD1062273A105A801F00AFC49
:10380000002808D021460622173105A801F002FC45
:10381000002803D066E03078802101E030788821EC
:1038200008433070000653D5607E237FE27EA17E80
:1038300001AE0FC6207E00905D48E37D8030C26AF5
:1038400063A1384601F02EF90A3505A928460A3742
:10385000FFF7E4FA2C2845D16846007D202803D1E3
:103860005820005D002806D02146583105A801F0F7
:1038700005FD002836D105A801F020FC021D2946CF
:10388000384601F099FC05A801F018FC451905A877
:103890002D1D01F013FCC419241D21462846FFF7F5
:1038A00002FBC0B2169005A801F008FC05462046B0
:1038B00001F004FC28180E3082B210A8808A00E0C3
:1038C00009E0009047A301201A99FDF774FB09E075
:1038D00000201BB0F0BD2F4A0023521E0221012000
:1038E000FDF704F91698F4E770B500F0DFFD054622
:1038F0003E493F48FFF755FF0446000408D54035D0
:10390000687B012803D121463AA001F0BDF870BDC3
:10391000002CFCD0200702D500F0E6FA0FE0E0060C
:1039200002D500F0A3FE0AE0E00408D523A001F0D0
:10393000ABF8002000F0FBF9012000F0F8F9600678
:1039400007D5042000F073FB8028E0D100F08EFE44
:1039500001E02006DBD500F0E0FA70BD1448243801
:103960004178002910D08288284B00219A4203D246
:103970008288521C828000E081808288244B9A4297
:1039800002D30122827081807047000025730000FD
:103990008C36000052C30000465725642E25642E45
:1039A00025642E25643A25643A25640D0A0000003A
:1039B000BC00002025733A25730D0A000D0A000093
:1039C0003000054600020546FFFFFFFFFFFF000035
:1039D00025732563256325632563256325630D0A08
:1039E00000000000FFFFFFFF00000000FC130020AC
:1039F000FC110020203E2053454743503A45525287
:103A00004F523A253034580D0A000000FFFF0000E5
:103A1000983A0000F3B5002583B02E462C46039853
:103A200001F04CFBC7B2002001900090F81F09285C
:103A300039D22EE001F020F801680398405D095C5E
:103A4000202902D02E2811D02DE00A214C43303CF1
:103A500001198CB2FF2C26D8009901AA5054009865
:103A6000401CC0B2009003281DD810E0FF2C1AD8CB
:103A7000761CF6B2042E16D8002401A801F0ABFA89
:103A8000049989192039C8770020019000906D1C95
:103A9000EDB2BD42CED301A801F09DFA049988553C
:103AA000012005B0F0BD0020FBE770B505460024FD
:103AB0000CE000F0E1FF0068295D415C88004840AF
:103AC000000601D4002070BD641CE4B2284601F059
:103AD000F5FAA042EDD8012070BD10B504461128BA
:103AE00001D2FF2010BD00F0C7FF0168085D20284B
:103AF00005D0204628383F2803D2513C08E0303C0E
:103B000006E02046402C04D9472C02D90446313C1B
:103B1000E4B2204610BD70B50E460546002401F003
:103B2000CDFAC1B2C80706D1102904D828780028D8
:103B300001D0002016E0002070BD2A5C392A01D98E
:103B4000373A00E0303AD3B22A185278392A01D9EC
:103B5000373A00E0303A1B0113433355641C801C94
:103B6000E4B2C0B28842E8D3012070BDF7B584B09A
:103B70000546002401F0A2FA2978C0B2002901D03C
:103B8000112802D0002007B0F0BD002601AF600070
:103B9000201841190322684601F00EFB684681781F
:103BA000002904D0059801F02BFA0028EBD06846D4
:103BB0008670FFF77AFF0028E5D039196846FFF7CD
:103BC000AAFF641CE4B2062CE1D3062201A90698E0
:103BD00001F0F2FA0120D6E7F8B50D46044601F0EF
:103BE0006DFAC0B2C10716D1102814D82078002869
:103BF00011D00026C1B268460170617841702A4632
:103C000086706D1C05A101F0AFF8A078A41C0028F7
:103C1000F0D10120F8BD0020F8BD0000257800009B
:103C200070B5314C256866172660304EB047256068
:103C300070BD10B50021420C16D02D4A904204D31D
:103C40002C4A104201D1102406E02A4A52429042E6
:103C500009D3800C07D1112472B600231A462046DE
:103C6000FFF7DEFF62B610BD12240146F4E710B57F
:103C7000410C07D172B6002301461A461320FFF704
:103C8000CFFF62B610BD70B514460A46184B1A49EC
:103C9000984208D3850C06D1FF250135AC420DD8DA
:103CA000E3188B420AD8002C01D1884206D80121A2
:103CB0004904FF23411A5B02994201D2002070BDE2
:103CC00072B6234601462220FFF7AAFF62B62046BD
:103CD00070BD10B50346002002E01C5C0C54401C73
:103CE0009042FAD310BD000000E200E00110FF1F77
:103CF00000FE03000001FCFFFFFF030070B50D464E
:103D0000144601000BD001290DD0022901D003284F
:103D100004D11A4621462846FFF7DBFF70BD062274
:103D200021462A48F8E71A4621462948F4E7F8B51B
:103D3000002818D0012818D002281AD0032817D13B
:103D40002725ED020C270826002420034019FFF741
:103D50008EFF641CA4B2BC42F7D338034519002E71
:103D600006D000240EE0194800E01948FFF761FF73
:103D7000F8BD07252D03E5E720024019FFF759FF9D
:103D8000641CA4B2B442F7D3F8BD70B51C460B4610
:103D9000154601000BD0012910D0022901D00328BB
:103DA00004D1224629461846FFF76DFF70BD00205A
:103DB000FFF7BDFF062229460448F5E70120FFF77B
:103DC000B6FF224629460248EEE7000000FE030047
:103DD00000FF030030B50124364985B02003086098
:103DE000354D2846FCF77CFAFCF700FA7D21C90026
:103DF00001F0A1FA0090002004900290019469461D
:103E000003942846FCF7ACFA01212846FCF7BEFAD9
:103E10002846FCF7CEFA05B030BD70B5264C2046DA
:103E2000FCF7C0FA00282FD02046FCF7B8FA234C44
:103E30006088401C6080FFF791FD00F0C1F92048C8
:103E400000250078002808D0E088401C80B2E0807F
:103E5000642802D301202070E5807D21C90060889C
:103E600001F069FA002905D16580A088401CA08076
:103E7000FEF7D4FC3C21A08801F05DFA002903D1B3
:103E8000A580A068401CA0600B4C20342046FCF7A5
:103E900089FA002802D02046FCF781FA70BD074855
:103EA000806870470548808870470448408870479C
:103EB0007047000000E100E000100040B401002065
:103EC000900000201FB56846FCF754FC6946054881
:103ED000FCF75EFC1FBD10B5E1204002FCF708FDB9
:103EE00010BD000000D0004010B500F0E1FA00F075
:103EF000BDFB10BD10B5C648FCF776FD172808D0ED
:103F00001C2806D00220FCF7C9FD0120FCF7C6FDE5
:103F100010BD0220FCF716FFF7E7FFF7EBFFBFF33A
:103F20004F8FBD49BB48C860BFF34F8FFEE7BB480A
:103F30000021017081708180C1804170C170704723
:103F4000F3B581B000F0B2FA0646002004460090B6
:103F50000198A8368704B2483818FCF745FDAF4DE4
:103F6000172808D002DC00285FD14FE018284DD078
:103F70001C285AD141E0AA4810383818FCF734FD03
:103F8000C00707D00120A870A548012108383818BB
:103F9000FCF72CFDE878012833D0A2483818406A95
:103FA0000404240C41D00120C002844200D90446FC
:103FB000F01C01F0A7F9E9680A19904201D2401AF1
:103FC00084B2224602990198FCF78EFF84B2E86819
:103FD000210A0019E86068460170447002226946AF
:103FE0000198FCF7F1FE0027EF80F01C01F08AF940
:103FF000E968884219D8AF80AF700198FCF7A2FE3B
:1040000013E00198FCF79EFE0020FEBD2023864AA7
:1040100001210198FCF76AFD01460198814204D113
:104020000020E8600198FCF7CCFD2046FEBDF1B50C
:104030008AB000F03BFA0646A83600F037FA05468B
:1040400030784535202700280FD0F01C01F05AF9B0
:104050001922D202002801D0904209D9297A0129D7
:1040600003D10146714800F00FFD40200BB0F0BDB8
:1040700027240A99E402042907D00A4607210903E4
:10408000022A4FD0032A48D03BE0297A012903D1E4
:10409000014667A000F0F8FC60490020886003201A
:1040A000FFF745FE5D480121017004466F49042079
:1040B000FFF746FF03000DD02720A168C0020918B2
:1040C0006A4A0320FFF761FEA16880B20818A06069
:1040D0000020A0806078012809D0E07801280AD06B
:1040E000F01C01F00FF9A1688842DFD80AE0287AB5
:1040F00001285AD005E0287A012802D15CA000F0FE
:10410000C3FC4027F01C01F0FDF84449896888424F
:1041100052D12A7A012A4AD04DE002220594009217
:10412000079103E00322009207940591297A01295F
:1041300003D101465CA000F0A7FC384C0020A06031
:104140000A98FFF7F4FD0120C002069001202070BC
:1041500060780128CBD0F01C01F0D4F80122A168CE
:10416000D2028A18904202D2401A80B20690079872
:104170003E4A4118069B0098FFF7C0FD03041B0C44
:104180000CD00598A168394A41180A98FFF7FDFD3F
:10419000A16880B20818A0600020A080F01C01F087
:1041A000B1F8A1688842D3D8ACE74FA0A7E7024690
:1041B0005BA000F069FC8027FFF7B9FE384655E7A1
:1041C00030B516487D230578614A9B010124002102
:1041D000012D0CD18588954203D285886D1C858080
:1041E00000E0818085889D4201D34470818085787C
:1041F000012D0CD1C588954203D2C288521CC280C1
:1042000000E0C180C2889A4201D3C470C18030BD31
:10421000300009460400FA0500ED00E0C801002066
:10422000300001460002014652C30000486600000B
:10423000203E2053454743503A46575F555044412E
:1042400054453A4E4554574F524B202D20466972E3
:104250006D776172652073697A653A205B25645DCC
:104260002062797465730D0A00000000FC090020CB
:10427000203E2053454743503A46575F55504441EE
:1042800054453A4641494C4544202D204E657477AB
:104290006F726B20646F776E6C6F61642074696DF0
:1042A000656F75740D0A0000203E2053454743504A
:1042B0003A46575F5550444154453A464C4153485D
:1042C0002D746F2D464C415348202D204669726D48
:1042D000776172652073697A653A205B25645D2099
:1042E00062797465730D0A00203E205345474350A0
:1042F0003A46575F5550444154453A4641494C452A
:1043000044202D204669726D776172652075706456
:104310006174652074696D656F75740D0A00000025
:10432000203E2053454743503A46575F555044413D
:1043300054453A53554343455353202D202564207B
:104340002F2025642062797465730D0A0000000037
:10435000FFFF0000FEB50446022818D24E4E65004D
:10436000705B00900120694608714C48A700C05955
:10437000FCF76BF84948715B401F025D801E005DD1
:10438000FCF751F94548715BC059FCF7E2F8FEBDF6
:1043900010B5212002214006FCF7C7F810BD10B56A
:1043A000212464060123002202212046FCF76AF939
:1043B0000220606110BD10B50120FFF779FD38487B
:1043C00064218162C1620163416301610122920340
:1043D000432051000006FDF771FC0020FFF768FD47
:1043E000FFF7DDFFFFF7D4FF00280AD000202B499C
:1043F000083908700020FFF7ADFF0120FFF7AAFF82
:1044000010BD0120F3E72749022008632649886090
:10441000704710B501232120002259024006FCF705
:1044200031F910BD10B50121212049024006FCF7E9
:104430007CF810BD70470020704710B5022807D2E5
:10444000154A4100515A154A80001058FCF78FF860
:1044500010BD10B5022807D20F4A4100515A0F4A29
:1044600080001058FCF775F810BD022808D20B49DF
:10447000820089584A68084B4000185A42404A60F6
:10448000704710B5044A4100515A044A8000105840
:10449000FCF755F810BD000054640000E001002056
:1044A000403000414011004100200041FE4870476B
:1044B000F8B5FD4EF920307000207070B070012505
:1044C000F570044630710F21701D00F0D2FE0A22F3
:1044D000F6A1701D00F070FE35757475B475C021BD
:1044E0007177A822B2770B23EF48F37702262030AA
:1044F000067041708270C3700571FF264671867127
:10450000C671047245728572C172027343730321CE
:10451000E94A8173C11C0A73130A4B73431C1A7452
:10452000160A5E740C74260A4E74E44E1E75360A22
:104530005E750C75230A4B7544768476C4760477D1
:1045400044778477C47720300570DD4B411C0B70B5
:104550001B0A4B70C11C0A70120A4A7044710C2667
:104560008671C571047244728472C4720473457397
:104570000A21183000F07DFECB480A214E3000F0B1
:1045800078FEC948082160308470C470047141719C
:104590008171C17101723221093000F06AFEC24896
:1045A0002B218030C576047741778177C177BE4F64
:1045B0000F20A037387000207870B81C0570290AC9
:1045C00041703E71310A79710471210A41713C7266
:1045D000BC49401E0172090A417201460A3100209D
:1045E00000F0A1FE50203874002078743846133053
:1045F000BD741E21044600F03CFE1322B2A12046E9
:1046000000F0DAFD384631302821044600F031FE52
:104610002022B2A1204600F0CFFDF8BD10B5FFF773
:1046200009FFF923A04A00210120FFF767FB9E4CF8
:10463000607821780002084302D0B049884207D14F
:10464000FFF736FFF923984A00210120FFF79DFB71
:104650009549012020318872207500206075A07571
:10466000FFF7E9FE90494031487110BD10B5F923BC
:104670008D4A00210120FFF788FB10BD10B500F026
:104680009BFD10BD10B500F097FD10BD10B50446A0
:104690000146854806221730FFF7F4FF82480422BE
:1046A000A11D1D30FFF7EEFF7F48214604220E3189
:1046B0002130FFF7E7FF7C48214604220A312530EC
:1046C000FFF7E0FF78482146042212316530FFF7FA
:1046D000D9FF7548A17D6030012902D00121C17048
:1046E00010BD0021FBE710B56F49044606221731C3
:1046F000FFF7C4FF6C4904221D31A01DFFF7BEFF68
:1047000069492046042221310E30FFF7B7FF664980
:104710002046042225310A30FFF7B0FF62492046C7
:10472000042265311230FFF7A9FF5F486030C0787E
:10473000002801D0022000E00120A07510BD30B596
:1047400089B0594D03A90120FDF7BEF96846427CA6
:10475000017CC07B6B4607C36846837B427B017B41
:1047600067A000F091F928462330417B007B0902C5
:1047700001436846407D009001916846037DC27CFC
:10478000817C69A000F080F96846407F009068460F
:10479000037FC27E817E6DA000F076F96846407E80
:1047A00000906846037EC27D817D6EA000F06CF9AA
:1047B00008A84078009008A803786846C27F817FE7
:1047C0006EA000F061F92C462034607A01282DD0CB
:1047D0006420415D601C0129417C0FD0027C0802ED
:1047E000A17B104301900091637B227BE17A69A059
:1047F00000F04AF9607A032809D017E00A02007C29
:104800002946024369316EA000F03EF90EE0E07ADD
:10481000002808D1207B002805D1607B002802D128
:10482000A07B002807D070A000F02EF96DA000F04A
:104830002BF909B030BD71A0F6E710B51A4C7448D9
:10484000E17DFCF7D3F87248217E401EFCF7CEF8DC
:104850006F48617E801EFCF7C9F86D48A17EC01EBE
:10486000FCF7C4F86A48E17E001DFCF7BFF8684811
:10487000217FC01CFCF7BAF810BD10B50A4C86B0F9
:104880002146062217316846FFF7F8FE214601A8A7
:1048900004221D310230FFF7F1FE214604222131AE
:1048A00003A80230B6E00000FC1500205737353071
:1048B000302D53324500000088130000B80B000073
:1048C000581B000052C300006465766963652E774B
:1048D000697A77696B692E6E657400002F77697A43
:1048E00037353073722F66772F5737353030785F12
:1048F0005332455F4170702E62696E00FFFF000009
:104900002023204D41433A20253032583A25303279
:10491000583A253032583A253032583A25303258F4
:104920003A253032580D0A002023204950203A20E1
:1049300025642E25642E25642E2564202F20506F9B
:1049400072743A2025640D0A0000000020232047DD
:1049500057203A2025642E25642E25642E25640DCB
:104960000A000000202320534E203A2025642E25E3
:10497000642E25642E25640D0A00000020232044A7
:104980004E533A2025642E25642E25642E25640D71
:104990000A00000020232044657374696E61746905
:1049A0006F6E2049503A2025642E25642E25642EF2
:1049B0002564202F20506F72743A2025640D0A0060
:1049C00020232044657374696E6174696F6E20449E
:1049D0006F6D61696E3A202573202F20506F7274BD
:1049E0003A2025640D0A000020232320554450203E
:1049F000313A31204D6F64650D0A000020232320D9
:104A000055445020313A4E204D6F64650D0A000028
:104A100003600046FFF732FE214602A8042225313A
:104A20000230FFF72BFE214604A804226531023034
:104A3000FFF724FE6034E078002801D0022000E077
:104A40000120694688750020FDF73EF806B010BDCC
:104A500007480121C170704705480021C1707047A7
:104A60000146034810B50622493800F0A5FB10BDE9
:104A70005C1600207047000010B501F01BF8001D07
:104A800010BD00BF311800000FB4054910B503AACE
:104A9000029801F0A3F810BC08BC04B0184700004D
:104AA0008C0000200FB41CB5074B06AA7B44694656
:104AB0000090059801F063F80020694601F072F853
:104AC0001CBC08BC04B01847F510000070B50446C3
:104AD00085690068C10601D5302600E02026C007A0
:104AE00007D070BD62683046A1689047206A401CBC
:104AF00020626D1EF6D570BD70B5044685690078DC
:104B0000C00707D170BD6268A16820209047206A65
:104B1000401C20626D1EF6D570BD70B50C46054672
:104B2000012A05D02878800600D5EA69002302E032
:104B3000012305E05B1C934202D2E05C0028F9D11E
:104B4000A869E618C01AA861286AC0182862284611
:104B5000FFF7BCFF04E06A682078A968641C9047EE
:104B6000B442F8D32846FFF7C7FF70BDF7B500255C
:104B700075291068009914A611D0C046C0460028B7
:104B800002DA404211A608E0009909688A0701D5B7
:104B90000FA602E0490704D50EA6012501E0C04694
:104BA000C046009F0024243704E001F0D1F83031E2
:104BB0003955641C0028F8D12B463246214600980E
:104BC00000F080FFFEBD0000000000002D0000008E
:104BD0002B0000002000000070B504460D46214661
:104BE0001068C046C0462188090502D50F4A7A449C
:104BF00002E00E4A7A440E3223460021243305E0B7
:104C000006070009360F965D5E54491C0028F7D14F
:104C100020780023000705D5702D03D0002901D08E
:104C200002231132204600F04DFF70BD66180000CF
:104C3000F3B50446002081B020622046E168884731
:104C400000287DD0252802D06268A16883E0454F06
:104C500000257F442046E16888472028064608DB77
:104C6000312E06D2B81920380078002801D005432B
:104C7000F0E7A80701D5042085430020E06107463E
:104C8000A0612A2E0AD0304601F00DFB002827D063
:104C9000B8000019303E0090866119E00298BA0011
:104CA000121902C8916102902046E1688847012FDD
:104CB000064617D1E06900281FDA202085431CE052
:104CC00000980A218069484300998019303888612A
:104CD0002046E1688847064601F0E5FA0028EFD152
:104CE000012F0AD02E2E08D12046E16888470646BB
:104CF000202005437F1C022FC3DBA069002803DAB4
:104D00004042A06101200543E80701D010208543FF
:104D1000002E24D030464138192803D80120C00283
:104D200005432036204625603146029A1546FBF79A
:104D3000EBF900280CD0012807D0ED1DE80800E0B1
:104D40000DE0C0000830029077E72D1D029574E752
:104D500062683046A1689047206A401C6CE7206A70
:104D6000FEBD00002A1800000FB400B58DB010A9D8
:104D700009900B900020C04300910A9000200C90F5
:104D8000074878440690074878446A4607900F9988
:104D900009A800F04DFF0DB008BC04B01847000092
:104DA000CF0E0000E90E0000FFB51D460027FF43AF
:104DB00083B05C68002001909E68A96904987F1CFC
:104DC00088470090296A88470028F6D10098401C3F
:104DD0000CD0032040028443002E19DD600614D558
:104DE00000982B2809D02D280FD103E00020C043C4
:104DF00007B0F0BD012080020443A96904987F1C1C
:104E00008847761E002E009002DD0098302803D0DF
:104E10000598002825D035E00120A9694002044307
:104E2000761E04987F1C8847002E009003DD7828AA
:104E300005D0582803D00598002810D022E0059806
:104E4000002801D010281DD10120A9694002844307
:104E5000761E04987F1C88470090102002E00820EE
:104E600000E00A2005900DE00121059A49020C435B
:104E70000199761E514308180190A96904987F1C76
:104E800088470090002E05DD0599009800F0BAFED5
:104E90000028E9DAE96904988847A00502D40120CE
:104EA000C043A5E7E00722D1600611D5600501984F
:104EB00000D5404229680A1D2A600968220501D5EB
:104EC000087014E0220701D5088010E008600EE0A9
:104ED0002868011D29600068210502D5019901702B
:104EE00005E02107019901D5018000E00160384605
:104EF0007EE7FFB5144683B000200026009050687E
:104F0000019091699768049888470C99054606981E
:104F1000084305D009E0A1690498761C8847054636
:104F2000216A284688470028F5D1681C03D00198DB
:104F3000C00704D017E00020C04307B0F0BD2068D0
:104F4000011D2160006800900DE00198C00704D1A8
:104F5000009805700098401C0090A169761C049888
:104F60007F1E88470546002F1CDD681C1AD0069856
:104F700000280FD0E817C00E4019411140098A00DF
:104F80000699400151182A1A0968012090400142EF
:104F9000DBD107E00C980028D7D12846216A884742
:104FA0000028D2D0E1690498884701980C99C0077D
:104FB000C00F084302D1009800210170A068B842D8
:104FC00004DD0C98002804D0002F02D00120C0433B
:104FD000B3E73046B1E770B5064600F06FFD0468F0
:104FE000054630460A22002100F056FE2C6070BDB6
:104FF00010B5024A00F088FE10BD0000E801002054
:10500000401ECAB24178401C8A4202D00029F9D120
:1050100000207047034610B50B439B070FD1042AAD
:105020000DD308C810C9121FA342F8D018BA21BA6C
:10503000884201D9012010BD0020C04310BD002AC4
:1050400003D0D30703D0521C07E0002010BD037823
:105050000C78401C491C1B1B07D103780C78401CA2
:10506000491C1B1B01D1921EF1D1184610BD000036
:10507000034670B502460B439B070FD10E4CE60169
:1050800000E008C208C91D1B9D433542F9D0D9B2C2
:105090001170521C00290DD01B0AF8E70B78491C2F
:1050A0001370521C002B05D00B78491C1370521C36
:1050B000002BF3D170BD00000101010130B5441C8B
:1050C00003E00178401C00290DD08107F9D10B4B7A
:1050D000DD0104C8D11A91432940FAD0001B0A0609
:1050E00003D0C01E30BD001B30BD0A0401D0801E9D
:1050F00030BD0902FCD0401E30BD0000010101019D
:105100000346F0B50B439B072DD1244DEF01042A34
:1051100029D308C810C95E1B9E43121F3E4017D0FA
:10512000D8B2E1B2401A3106014310D198B2A1B20F
:10513000401A310401430AD118022102000A090A67
:10514000401A3102014302D1180E210E401AF0BD5F
:10515000A342DCD018BA21BA884201D90120F0BD9F
:105160000020C043F0BD002A01D10020F0BD03782B
:105170000C78401C491C002B0DD0A3420BD1521EB1
:1051800009D003780C78401C491C002B03D0A342A3
:1051900001D1521EEBD1181BF0BD0000010101012D
:1051A000421E5378521C002BFBD10B78491C137004
:1051B000521C002BF9D17047F8B5042A2CD3830771
:1051C00012D00B78491C0370401C521E83070BD071
:1051D0000B78491C0370401C521E830704D00B78C7
:1051E000491C0370401C521E8B079B0F05D0C91A27
:1051F000DF002023DE1B08C90AE0FAF7BFFFF8BD75
:105200001D4608C9FD401C46B4402C4310C0121F67
:10521000042AF5D2F308C91A521EF0D40B78491C9F
:105220000370401C521EEAD40B78491C0370401CCA
:10523000012AE4D409780170F8BD01E004C0091F17
:105240000429FBD28B0701D50280801CC90700D03E
:105250000270704700290BD0C30702D00270401CB7
:10526000491E022904D3830702D50280801C891EAF
:10527000E3E70022EEE70022DFE70000024670B518
:105280000A4392072AD11E4DEE0104C808C9541BD7
:105290009443344017D0D0B2D9B2401A210601430A
:1052A00010D190B299B2401A210401430AD11002E0
:1052B0001902000A090A401A2102014302D1100E04
:1052C000190E401A70BD9A42DFD010BA19BA88423E
:1052D00001D9012070BD0020C04370BD02780B7859
:1052E000401C491C002A09D09A4207D102780B7849
:1052F000401C491C002A01D09A42EFD0D01A70BD40
:10530000010101010378C2781946437812061B0295
:1053100019438378C0781B04194311430902090A11
:10532000000608437047020A08704A70020C8A702F
:10533000020ECA707047002203098B422CD3030A65
:105340008B4211D300239C464EE003460B433CD4D2
:10535000002243088B4231D303098B421CD3030A3A
:105360008B4201D394463FE0C3098B4201D3CB016A
:10537000C01A524183098B4201D38B01C01A52419A
:1053800043098B4201D34B01C01A524103098B429E
:1053900001D30B01C01A5241C3088B4201D3CB0089
:1053A000C01A524183088B4201D38B00C01A52416C
:1053B00043088B4201D34B00C01A5241411A00D21C
:1053C00001465241104670475DE0CA0F00D0494285
:1053D000031000D34042534000229C4603098B42F5
:1053E0002DD3030A8B4212D3FC22890112BA030A7D
:1053F0008B420CD3890192118B4208D389019211FF
:105400008B4204D389013AD0921100E08909C30983
:105410008B4201D3CB01C01A524183098B4201D385
:105420008B01C01A524143098B4201D34B01C01A70
:10543000524103098B4201D30B01C01A5241C308E8
:105440008B4201D3CB00C01A524183088B4201D357
:105450008B00C01A5241D9D243088B4201D34B0072
:10546000C01A5241411A00D20146634652415B10B4
:10547000104601D34042002B00D549427047634695
:105480005B1000D3404201B50020C046C04602BDBB
:105490007047704770470000F0B50C46871A9C4172
:1054A0000D46861A9D4103D2C01BA141D21963410A
:1054B0000D0D1F0DC74EEC1BAE435CD07F057F0D5D
:1054C0000026002F51D02D05AC46A943DD02012353
:1054D000ED0A1B051D4320231B1B24D41746E74060
:1054E000381871412F46E740CC199D4028183146A5
:1054F00061410C0D27D161449A4013D50023401C13
:10550000594152000ED14008400001224B00520583
:10551000D34207D305204007C14201D5AE4900E080
:10552000AE493046F0BD6B00002A00D001229A1827
:105530001F23203C1B1B01D5002302E0E540281857
:1055400071410C0DD7D0012424050919C407CD07DA
:1055500040084908E40F28436144002CD5D00024BA
:10556000401C61419A40D0D1CDE76A05520DD9D196
:10557000C90FC907D5E79A4D4E00002801D0012474
:1055800000E0002434195F00002A01D0012600E069
:105590000026BE19934FAC420CD8AE420AD8B44292
:1055A00006D001256D05EC42BCD010461946F0BD71
:1055B0009942FCD000203946F0BDF0B51FB40C462E
:1055C0000F46811A9F412546861A9D4106D2012524
:1055D000ED076F40401ABC4152187B41210D1E0D52
:1055E0008D1BAC467B4D8D437ED075056D0D7CD0FB
:1055F0000D05AE46AC431B031B0B774D52429D413C
:10560000202366469B1B14D31746F7403818002604
:105610000090744160462F460741E41900989D4070
:105620002818664116D4714671189A4025D5012371
:1056300020E093182A466A415200002B00D0521CE9
:105640001E23203E9B1B002B61DD3541EE172818E1
:105650006641E8D5001876415B1C9A4000D3401C97
:105660004B05F3181524E34010D3002B52D071469C
:105670007118D30FC01802D3491C05B0F0BD012327
:10568000DB079A42F9D140084000F6E701225205B3
:10569000B21801D1002853D00123CC0ADB02994370
:1056A000891E002A08D1020C03D0020C0004103914
:1056B00002E00246002020390023550B05D11202DA
:1056C0000823550B01D152010D23550C01D11201B4
:1056D0001B1DD50C01D192009B1C150D01D1520050
:1056E0005B1C2025EE1A01E02CE022E00546F54087
:1056F00015439840CA1AE10769181305C918002A0A
:10570000BBDA032040070818C10FC9070FE0714634
:105710006118B2E7F10740080843711071444A006C
:105720000CD001235B059A42A7D2C90FC9070020FC
:10573000A3E74905490D26D1002001E00028F4D156
:1057400000219AE7264D6600002801D0012100E0E3
:10575000002171185F00002A01D0012600E0002618
:10576000BE19204FA94210D8AE420ED8B14208D07F
:1057700001256D05E94206D01946A80241401046B0
:105780007BE79C4201D0214677E70020394674E749
:1057900030B40C465C4004D50124E407634030BCBF
:1057A0000BE730BC78E630B40C465C4004D50124ED
:1057B000E407634030BC6FE630BCFEE630B4012441
:1057C000E40761400D465D4001D430BC64E66340AF
:1057D00030BCF2E6FF0700000000F0FF0000F07FA1
:1057E0000000E0FF0000F87FCB02420D10B51A4325
:1057F0000B1504D00124E4072243002B06DB0A4CDE
:10580000E31A05D41046D840FF2B00DD002010BD60
:105810004A00002800D00120101801225205D04271
:10582000F4D8C817C04310BD1E0400000121C905EB
:105830000123411842001B06D3185B0E0AD0C11089
:105840000722D206891840075242D14201D55200A0
:1058500089187047090208D50146002A03D0C10FF4
:10586000C9070020704710467047420202D000204E
:1058700002497047072109050143F4E70000F87F5A
:1058800070B5FF242404C609FF25264001352E43A8
:10589000C209CB090546224023404D40002A6BD067
:1058A000002B69D0A24267D0A34265D0002D00DA58
:1058B00032460124E4052143204309020002090A7B
:1058C000D21A000A4B0C7F24E31A434C7C44E35C5D
:1058D0007D242404121914145B00A218884201D3F9
:1058E000521C00E0400049420C465C4324115C43DA
:1058F000DB016415E318040A5C43C502200D0C4665
:1059000044436419250A5D432303EC0C0D466543AB
:1059100000030019EB184C42A34201D35B18401C52
:10592000D4052018002B07D05B00C91804D3401CF5
:10593000002901D1400840003F2189048A4209D34F
:10594000002A08DC1106090F04D00321490740187A
:10595000C00FC00770BD01224100120689187F22C6
:1059600052069142F6D205214907C84201D590104E
:1059700070BDFF20C00570BD002D00DA3246174E05
:10598000A24207D2A34205D21802000E17D0E80F98
:10599000C00770BDFF2443002406A34216D8490067
:1059A000A14213D8A34201D1A1420FD0A14201D1FB
:1059B000002101E041004908D005084370BD1002F4
:1059C000000E03D0FF200243D00570BD304670BDED
:1059D00048404140484053E7C10B00000000C07FF1
:1059E00001460002CA1504D00123DB071843002A30
:1059F00009DB9E239A1A01D4D0407047FF22480049
:105A00001206904201D900207047C817C043704762
:105A10001F22030C02D10F2200041CD0030E01D15F
:105A20000002083A030F01D10001121F830F01D1B8
:105A30008000921E002801DB4000521ED205511842
:105A4000021251181922904004D3491C002801D198
:105A50004908490008467047C10FC90700D04042B5
:105A6000012292071143D3E701218907D0E7000003
:105A700010B5FF22C30D134009D05A4007D0914200
:105A800005DA5C42A14202DDC905081810BDC40F49
:105A9000E407002B06D0002A06D0002902DBFF20F5
:105AA000C0050443204610BD4102FCD0004810BD93
:105AB0000000C07F0048704718170020004870475A
:105AC000F8160020FFB504460D4681B02430009042
:105AD0002168880604D51022E0699143216000E026
